:020000040800F2
:10000000401C002045010008810A0008570900082B
:100010007D0A000811040008331E000800000000DB
:10002000000000000000000000000000291000088F
:100030008306000800000000410D00082913000895
:100040005F0100085F0100085F0100085F01000810
:100050005F0100085F0100085F0100085F01000800
:100060005F0100085F0100085F0100085F010008F0
:100070005F0100085F010008150400085F01000827
:100080005F010008450400085F0100085F010008E7
:100090005F0100085F0100085F010008B506000865
:1000A0005F010008C91300085F0100085F01000834
:1000B0005F0100085F0100085F0100085F010008A0
:1000C0005F0100085F0100085F0100085F01000890
:1000D0005F010008E1180008311B00085F010008FB
:1000E0005F0100085F0100085F0100085F01000870
:1000F0005F0100085F0100085F0100085F01000860
:100100005F0100085F0100085F0100085F0100084F
:100110005F0100085F0100085F0100085F0100083F
:100120005F0100085F0100085F0100085F0100082F
:10013000DFF80CD000F08CF80048004729220008B6
:10014000401C00200648804706480047FEE7FEE7BF
:10015000FEE7FEE7FEE7FEE7FEE7FEE7FEE7FEE777
:100160006913000831010008A0F16101192900D8C4
:1001700020387047D2B201E000F8012B491EFBD2B3
:1001800070470022F6E710B513460A4604461946A2
:10019000FFF7F0FF204610BD70B5064601F072FE75
:1001A000046805460A220021304600F018F82C6049
:1001B00070BD30B50B46014600202022012409E025
:1001C00021FA02F59D4205D303FA02F5491B04FA10
:1001D00002F52844151EA2F10102F1DC30BD2DE923
:1001E000F04791460F4680460446002614F8015B0E
:1001F0002DB100F03FF80068405DC007F6D12B2D0F
:1002000002D02D2D18D0641E4A463946204600F0F3
:1002100035F827B13968A14201D1C7F800807105CE
:100220004FF002040BD54042002803DD01F02AFE06
:100230000460A007BDE8F08746F48066E4E7002884
:10024000F8DA01F01FFE04606FF00040F2E70000F2
:10025000064C074D06E0E06840F0010394E8070013
:1002600098471034AC42F6D3FFF766FFF42200083B
:100270001423000800487047F02200082DE9F05FC1
:1002800082460078002715468B460AF10104B946DC
:10029000302801D09DB113E014F8010B0127782814
:1002A00003D0582801D045B10AE00DB1102D07D177
:1002B0000027102514F8010B02E0082500E00A25AC
:1002C0000026B0460EE005FB080005FB06F10127FD
:1002D00001EB10461FFA80F8B6F5803F00D3B9460F
:1002E00014F8010B294600F018F80028EBDABBF1EE
:1002F000000F05D00FB1641E00E05446CBF800405B
:10030000B9F1000F06D001F0BDFD02210160C81E49
:10031000BDE8F09F48EA0640FAE73A2800D23038B4
:1003200020F02002412A01D3A2F13700884201D3F4
:100330004FF0FF30704700000348008840F0010094
:100340000149088070470000346C004010B501215D
:100350004FF0C05000F092FD012000F0EBFCFFF7E1
:10036000EBFF012000F022F8012000F005F800204A
:1003700000F016F810BD0000014908607047000049
:1003800088860D4208B50146002000900348009081
:100390000098084400900098008808BD006C004058
:1003A000014908607047000000860D42014908605D
:1003B0007047000004860D4208B500220092044AEE
:1003C0000092009A02440092009A116008BD000059
:1003D000006C004010B500F0C7FF00F09FFB01F07B
:1003E00003FA01F021FB012000F094FE00F064F913
:1003F000FFF7ACFF00F02CFB0420FFF7C3FF04461F
:10040000641CA1B20420FFF7D7FF00F043FF10BD2A
:1004100000BFFEE710B54FF4005000F0F5F840B112
:1004200000228021054801F02EFC0021044800F044
:1004300039F84FF4704000F027F810BD0038014043
:100440004400024010B54FF0007000F0DDF878B1C4
:1004500000228021094801F016FC0021084800F024
:1004600021F8052000F01CF90821064800F060FA88
:100470004FF0706000F008F810BD0000004400402C
:10048000800002400014014000F0805111B1034986
:10049000086001E00249486070470000040402401F
:1004A0000000024021B1026842F00102026004E053
:1004B00002684FF6FE731A400260704701684FF6FB
:1004C000FE72114001600021016041608160C160E5
:1004D0004B49884208D14A490839496841F00F011F
:1004E000474A083A51608AE045491431884208D1A8
:1004F00043490839496841F0F001414A083A5160DE
:100500007DE03F492831884208D13D490839496892
:1005100041F470613A4A083A516070E038493C3120
:10052000884208D136490839496841F47041344A53
:10053000083A516063E032495031884208D130496D
:100540000839496841F470212D4A083A516056E053
:100550002B496431884208D129490839496841F456
:100560007001274A083A516049E0254978318842AC
:1005700008D123490839496841F07061204A083A96
:1005800051603CE01F49884206D1011F096841F0D3
:100590000F01021F116032E01A491431884208D15C
:1005A0001849091F096841F0F001164A121F11602D
:1005B00025E014492831884208D11249091F0968E9
:1005C00041F470610F4A121F116018E00D493C316F
:1005D000884208D10B49091F096841F47041094A52
:1005E000121F11600BE007495031884207D10549BD
:1005F000091F096841F47021024A121F11607047F7
:10060000080002400804024001460020002201F0D8
:10061000805313B1054B1A6801E0054B1A6802EAD2
:1006200001030BB1012000E00020704700040240EC
:10063000000002401AB103680B43036002E0036844
:100640008B430360704710B50022026847F6F073D1
:100650009A430C6A8B6823430C6923434C692343F8
:100660008C692343CC6923434C6A23438C6A23431C
:100670001A430260CB6843600B6883604B68C360B9
:1006800010BD7047014608E042F6DE6201E0531EED
:100690009AB2002AFBDC4B1E99B20029F4DC7047A9
:1006A0004FF4FA5200FB02F100BF0A00A1F1010170
:1006B000FBD170477047000008B5012140F2FD10E2
:1006C00000F0ECFB0220ADF8000003208DF80200E2
:1006D00010208DF803006946444800F095F84FF467
:1006E0004040ADF8000003208DF8020010208DF886
:1006F000030069463E4800F087F80120ADF800008D
:1007000048208DF803006946394800F07DF84FF421
:100710006060ADF8000048208DF803006946354858
:1007200000F072F80320ADF8000048208DF80300B7
:100730006946314800F068F80320ADF80000482011
:100740008DF8030069462D4800F05EF84FF6FF7003
:10075000ADF8000048208DF803006946284800F0F5
:1007600053F843F6FC70ADF8000048208DF8030004
:1007700069461F4800F048F84FF48070ADF800005B
:1007800003208DF8020010208DF8030069461748F9
:1007900000F03AF84CF28000ADF8000003208DF82C
:1007A000020010208DF803006946124800F02CF872
:1007B0004FF47070ADF8000003208DF80200102097
:1007C0008DF8030069460F4800F01EF847F27C00E0
:1007D000ADF8000003208DF8020010208DF8030012
:1007E0006946064800F010F808BD00000008014006
:1007F0000018014000140140000C0140002001409D
:10080000001C0140001001402DE9F0410246002586
:100810000026002000230024002791F803C00CF0DC
:100820000F0591F803C00CF0100CBCF1000F03D0C1
:1008300091F802C04CEA050591F800C0BCF1000F28
:1008400031D0146800202BE04FF0010C0CFA00F3BB
:10085000B1F800C00CEA03069E4220D183004FF09D
:100860000F0C0CFA03F7BC4305FA03FC4CEA040432
:1008700091F803C0BCF1280F06D14FF0010C0CFA1F
:1008800000FCC2F814C00AE091F803C0BCF1480FA4
:1008900005D14FF0010C0CFA00FCC2F810C0401C4E
:1008A0000828D1D31460B1F800C0BCF1FF0F34DDCB
:1008B000546800202EE000F1080C4FF0010808FAFF
:1008C0000CF3B1F800C00CEA03069E4221D183006C
:1008D0004FF00F0C0CFA03F7BC4305FA03FC4CEA8B
:1008E000040491F803C0BCF1280F05D100F1080CF5
:1008F00008FA0CF8C2F8148091F803C0BCF1480F54
:1009000007D100F1080C4FF0010808FA0CF8C2F802
:100910001080401C0828CED35460BDE8F081024608
:10092000002093680B400BB1012000E000207047CD
:1009300041617047016170470AB1016100E04161A6
:1009400070470146002002E0491C421CD0B20A78E0
:10095000002AF9D1704700BFFEE7F0B504460D4606
:10096000164600F0C7FD07460FB13846F0BDA0207F
:1009700000F096FD00F002FE18B900F0E7FD00203F
:10098000F4E7281200F08CFD00F0F8FDE8B200F06A
:1009900087FD00F0F3FD00F0ADFDA12000F080FD2B
:1009A00000F0ECFD07E000F051FD207000F01AFDB2
:1009B000641C701EC6B2012EF5D100F047FD2070F8
:1009C00000F02AFD00F0C2FD0020CFE72DE9F04144
:1009D00004460D461646002220211C48FFF7ACFFB6
:1009E0000120FFF74FFE00F085FD074617B138469E
:1009F000BDE8F081A02000F053FD00F0BFFD18B964
:100A000000F0A4FD0020F3E7281200F049FD00F0FB
:100A1000B5FDE8B200F044FD00F0B0FD07E020783D
:100A200000F03EFD00F0AAFD641C701EC6B2002E50
:100A3000F5D100F08BFD0C20FFF724FE01222021D0
:100A40000248FFF779FF0020D2E70000000C0140C8
:100A500008B50121082000F021FAC020ADF80000FF
:100A600003208DF8020014208DF803006946024827
:100A7000FFF7CAFE08BD0000000C014000BFFEE702
:100A80007047000070B5002100230F22C47804B322
:100A9000154C246804F4E064C4F5E064210AC1F153
:100AA0000403CA40447804FA03F1847814402143D3
:100AB00009010E4C0678A155047804F01F050124A5
:100AC000AC4005786D11AD0005F1E025C5F8004199
:100AD00009E0047804F01F050124AC40044D0678B9
:100AE000761145F8264070BD0CED00E000E400E012
:100AF00080E100E002490143024A116070470000B2
:100B00000000FA050CED00E0024A0A400243024BE5
:100B10001A60704780FFFF1F08ED00E010B500214C
:100B20004FF00060FFF7F0FF4FF4A060FFF7E2FF27
:100B300010BD000010B5044679490C8008460078C5
:100B400000F0010028B14FF480417648FFF7F0FE35
:100B500004E04FF480417348FFF7ECFE70480078E2
:100B6000C0F3400028B14FF400416E48FFF7E0FEAB
:100B700004E04FF400416B48FFF7DCFE6848007862
:100B8000C0F3800020B104216748FFF7D1FE03E0E5
:100B900004216548FFF7CEFE61480078C0F3C0002D
:100BA00020B108216048FFF7C3FE03E008215E483A
:100BB000FFF7C0FE5A480078C0F3001020B1802132
:100BC0005A48FFF7B5FE03E080215848FFF7B2FE10
:100BD00053480078C0F3401028B14FF48071534857
:100BE000FFF7A6FE04E04FF480715048FFF7A2FE25
:100BF0004B480078C0F3801028B14FF400714B4887
:100C0000FFF796FE04E04FF400714848FFF792FEAC
:100C100043480078C0F3C01028B14FF480714448B5
:100C2000FFF786FE04E04FF480714148FFF782FE33
:100C30003B480088C0F3002020B140213B48FFF72B
:100C400077FE03E040213948FFF774FE34480088FE
:100C5000C0F3402020B140213348FFF769FE03E094
:100C600040213148FFF766FE2D480088C0F3802000
:100C700020B120212C48FFF75BFE03E020212A4809
:100C8000FFF758FE26480088C0F3C02020B110218D
:100C90002548FFF74DFE03E010212348FFF74AFEE9
:100CA0001F480088C0F3003028B14FF480411E482F
:100CB000FFF73EFE04E04FF480411B48FFF73AFE89
:100CC00017480088C0F3403028B14FF4005116484F
:100CD000FFF72EFE04E04FF400511348FFF72AFE01
:100CE0000F480088C0F3803028B14FF480510E487F
:100CF000FFF71EFE04E04FF480510B48FFF71AFE89
:100D000007480088C0F3C03020B180210548FFF7B4
:100D10000FFE03E080210348FFF70CFE10BD00002A
:100D20000400002000140140002001400010014098
:100D300000080140014908627047000000000E42AF
:100D40007047000010B508A001F08CF813A001F066
:100D500089F820A001F086F82AA001F083F835A0D8
:100D600001F080F810BD00000A5C2A2A2A2A2A2AEB
:100D70002A2A2A2A2A2A2A2A2A2A2A2A2A2A2A2AD3
:100D800048656C702A2A2A2A2A2A2A2A2A2A2A2AE2
:100D90002A2A2A2A2A2A2A2A5C0D0A005055534850
:100DA0005F494E20202020202020202020202020AD
:100DB00020202020202020202243796C696E646549
:100DC0007220737472657463686564206F75742231
:100DD0000D0A0000505553485F4F555420202020E5
:100DE0002020202020202020202020202020202003
:100DF0002243796C696E64657220726573746572E2
:100E0000220D0A0052455345542020202020202046
:100E100020202020202020202020202020202020D2
:100E200022466978747572652072657374657222E2
:100E30000D0A000024432E4745545F544553544542
:100E40005249442020202020202020202020202023
:100E500020526561642049440D0A000029B1064A08
:100E600052690243044B5A6104E0034A52698243C7
:100E7000014B5A61704700000010024029B1064A38
:100E8000D2690243044BDA6104E0034AD269824327
:100E9000014BDA61704700000010024029B1064A98
:100EA00092690243044B9A6104E0034A92698243C7
:100EB000014B9A61704700000010024030B50021DC
:100EC0000022002400232D4D6D6805F00C0121B196
:100ED000042905D0082923D105E0294D056022E029
:100EE000274D05601FE0254D6D6805F47012234DF8
:100EF0006D6805F48034022505EB92421CB9214D42
:100F0000554305600BE01D4D6D6805F400351DB1BE
:100F10001C4D5543056002E0194D5543056002E044
:100F2000174D056000BF00BF144D6D6805F0F0015E
:100F30000909154D6B5C0568DD4045600F4D6D6816
:100F400005F4E061090A104D6B5C4568DD40856081
:100F50000A4D6D6805F46051C90A0B4D6B5C45681C
:100F6000DD40C560054D6D6805F44041890B074DB6
:100F70006B5CC568B5FBF3F5056130BD0010024040
:100F800000127A0000093D0010000020200000201F
:100F900008B500200090032202216846FFF7DDFC1F
:100FA0009DF8000000049DF8011000EB01209DF861
:100FB0000210084408BD000010B500241021184894
:100FC000FFF7ADFC50BB04211548FFF7A8FC28BB78
:100FD0003220FFF765FB04211148FFF7A0FC30B970
:100FE00010210F48FFF79BFC08B904B90124012C1C
:100FF00014D104210A48FFF792FC78B94FF4FA7033
:10100000FFF74EFBA1030748FFF794FC00BF202128
:101010000348FFF784FC0028F9D1002410BD00002C
:101020000018014000140140704710B500F002F8AC
:1010300010BD00000CB500200190009033480068FE
:1010400040F480303149086000BF3048006800F447
:10105000003000900198401C0190009818B9019848
:10106000B0F5A06FF1D12948006800F4003010B14C
:101070000120009001E0002000900098012843D159
:101080002348006840F010002149086008460068C5
:1010900020F0030008600846006840F00200086085
:1010A0001A48406819494860084640684860084640
:1010B000406840F4806048600846406820F47C1036
:1010C00048600846406840F4E810486008460068F8
:1010D00040F08070086000BF0C48006800F00070AD
:1010E0000028F9D00948406820F00300074948600B
:1010F0000846406840F00200486000BF034840686E
:1011000000F00C000828F9D10CBD000000100240CE
:1011100000200240062818D2DFE800F01703070B72
:101120000F130D490D4A116013E00D490B4A116070
:101130000FE00C49094A11600BE00B49074A1160A6
:1011400007E00A49054A116003E00349034A1160B8
:1011500000BF00BF704700000038014008000020B9
:101160000044004000480040004C00400050004057
:1011700070B50025002408212648FFF7D0FB002881
:1011800047D104212448FFF7CAFB002841D132206F
:10119000FFF786FA08211F48FFF7C1FB28B9042191
:1011A0001D48FFF7BCFB00B9012500BF0821194805
:1011B000FFF7B5FB28B904211748FFF7B0FB00285B
:1011C000F4D0012D1CD104211248FFF7A8FBB8B9B7
:1011D00010211048FFF7A3FB012811D14FF4FA703A
:1011E000FFF75EFAA9030D48FFF7A2FB00BF4021FD
:1011F0000848FFF794FB0028F9D10025601CC4B211
:10120000012C06D1002406A000F02CFE06A000F060
:1012100029FE70BD00180140001C0140001401406F
:1012200053746172740D0A004F4B405F400D0A0009
:1012300030B502460023002000BF0FE00C785CB1FF
:1012400014780D78AC4201D001200AE0521C491CF0
:101250005C1CE3B2002001E0012002E01478002CC5
:10126000ECD100BF30BD70B503460024002000BFA4
:1012700000BF0AE01D780E78B54201D0012006E0DB
:101280005B1C491C0020651CECB29442F2DB00BFE1
:1012900070BD000070B586B0002401A8FFF70EFEF7
:1012A00064210298B0FBF1F4042000F029F82146F3
:1012B000B1F1807F00D31DE021F07F40401E4FF050
:1012C000E022506150170F22002807DA13071E0E84
:1012D000094B00F00F052D1F5E5503E013071D0E8F
:1012E000064B1D5400BF00204FF0E0229061072004
:1012F000106100BF06B070BD18ED00E000E400E032
:10130000042808D14FF0E021096941F004014FF0B1
:10131000E022116107E04FF0E021096921F00401AA
:101320004FF0E0221161704710B50D480068401C75
:101330000B49086008460068322804D10221094898
:10134000FFF7F6FA0AE006480068642806D1022191
:101350000448FFF7EFFA00200149086010BD0000C3
:101360002C0000200008014010B51348006840F030
:1013700001001149086008464068104908400E49BC
:101380004860084600680E4908400B490860084656
:10139000006820F4802008600846406820F4FE00C1
:1013A00048604FF41F008860FFF73FFE4FF0006079
:1013B0000449086010BD0000001002400000FFF862
:1013C000FFFFF6FE08ED00E0704721B1028842F011
:1013D0000102028004E002884FF6FE731A40028088
:1013E0007047000000B540200A49086000F0EAF8A4
:1013F00080200849086000F0E5F840200549091FF1
:10140000086000F0DFF840200249086000F0DAF8D8
:1014100000BD0000140C014000B540200A490860DE
:1014200000F0D0F880200849091F086000F0CAF8D1
:1014300040200549091F086000F0C4F84020024917
:10144000086000F0BFF800BD140C014010B508247E
:10145000002380201149086014E05806030E402044
:101460000E49091D086000F0ADF840200B490860E6
:1014700000F0A8F809480838006800F0800008B1BA
:1014800043F001032000A4F10101CCB2E5D14020DA
:101490000249091D0860184610BD0000100C0140EB
:1014A00010B50346082419E040201149086000F0F7
:1014B00089F803F0800020B180200D49091F0860E1
:1014C00002E080200A4908605806030E00F07AF80E
:1014D00040200749091F086000F074F82000A4F1BB
:1014E0000101CCB2E0D140200149086010BD0000EC
:1014F000140C014000B580201349086040200860AA
:1015000000F060F810480838006808B9012000E0D1
:10151000002000F0800008B1012000BD80200A49B1
:10152000091D086000F04EF807480838006800F010
:10153000800008B10220F0E740200349091D08603F
:1015400000F040F80020E8E7100C014000B58020D2
:10155000094908604020086000F034F8402006493E
:10156000091F086000F02EF880200349091F086059
:1015700000F028F800BD0000140C014000B5402028
:101580000F49086000F01EF880200D49091F08600F
:1015900000F018F840200A49091F086000F012F80E
:1015A00007480C38006800F0800020B14020044952
:1015B0000860002000BD4020014908600120F9E7D3
:1015C000140C01400A2000BF0100A0F10102D0B2BA
:1015D000FAD1704710B5FFF7EFFCFFF7C9FD10BD5A
:1015E00070B5A0B080216846FEF7CBFD5648007864
:1015F00001287CD1002054490870002408E0534998
:10160000085DFEF7B1FDC0B20DF80400601CC4B265
:101610004D488078A042F2DC00200DF804009DF8CF
:101620000000242854D048284AD0502802D05228FC
:101630007CD132E0694646A0FFF7FAFD98B9042153
:101640004548FFF76CF970B94FF480414348FFF704
:101650006FF900BF20214048FFF761F90028F9D158
:101660003FA000F0FFFB69463FA0FFF7E1FD98B9FE
:1016700004213948FFF753F920B94FF48041374826
:10168000FFF758F900BF40213348FFF748F9002819
:10169000F9D133A000F0E6FB51E0694635A0FFF731
:1016A000C7FD60B904212C48FFF739F938B94FF468
:1016B00080412A48FFF73EF929A000F0D3FB3EE025
:1016C00069462EA0FFF7B4FD08B9FFF73BFB00BF4A
:1016D0006846FFF736F90546132D1DD10E226946DF
:1016E00028A0FFF7C0FD68B90DF10E0000E027E06B
:1016F00000F0A1FBFFF74CFC0646314625A000F0A8
:10170000B1FB09E027A000F0ADFBFFF741FC064666
:10171000314620A000F0A6FB694626A0FFF788FD11
:1017200040B9FFF735FC0646314600E003E025A04E
:1017300000F098FB03E028A000F094FB00BF00BF7E
:10174000002020B070BD00003400002037040020CD
:10175000505553485F494E000018014000140140A5
:101760004F4B405F400D0A00505553485F4F555452
:1017700000000000524553455400000048454C50BD
:101780000000000024432E575F54455354455249EE
:10179000445F0000544553545F49442C2530356460
:1017A0003E0D00004572726F7220436F6D6D616E69
:1017B0006400000024432E4745545F54455354456C
:1017C00052494400244D2E5445535449442C25304D
:1017D00035643E0D000000004552524F525F434FAA
:1017E0004D4D414E443E0D0010B500F0D9F800F0CB
:1017F00055F800F0F1F800F015F800F0FFF840F2AD
:101800002551074800F024FA012240F225510448EE
:1018100000F079FA0121024800F029FA10BD000019
:101820000038014000B58DB001210846FFF716FBD6
:101830000E208DF8300000208DF8310002208DF848
:10184000320001208DF833000CA8FFF71BF9104877
:10185000FEF734FE0F4801900F48029010200390CD
:1018600000200590802006900020079008900990A5
:101870004FF440500A9000200B9001A90448FEF755
:10188000E2FE012202210248FEF7D4FE0DB000BDA7
:1018900044000240043801403708002008B5012107
:1018A0000420FFF7FBFA4FF40070ADF80000182099
:1018B0008DF8030003208DF8020069460748FEF703
:1018C000A3FF4FF48060ADF8000004208DF8030002
:1018D00069460248FEF798FF08BD00000008014075
:1018E00070B540F225512B4800F0E3F9012840D1B2
:1018F00040F22551274800F0ABF9264800F094FA51
:10190000C5B20A2D45D00D2D29D123484078022893
:1019100019DD002407E02048C01C015D00F580604F
:101920000155601CC4B21C484078A042F3DC002181
:101930001A480155184840781749887000204870A7
:101940000120087025E00020134981F803040846AF
:1019500040788870002048700120087019E00E4817
:101960004178C01C4554C01E4078401C0A4948704C
:101970000FE04FF45871074800F08EF9012803D1A9
:10198000044800F051FA04E040F22771014800F0E9
:1019900090F970BD00380140340000203704002069
:1019A0001FB501218803FFF779FA4FF41640009024
:1019B0000020ADF80400ADF80600ADF80800ADF861
:1019C0000C000C20ADF80A006946024800F0C0F98E
:1019D0001FBD00000038014008B525208DF800002B
:1019E00000208DF8010002208DF8020001208DF802
:1019F00003006846FFF746F808BD00000021084ACA
:101A0000117091705170002007E0002205490A54BE
:101A1000A1F580610A54411CC8B23C28F5DB70472F
:101A2000340000203704002010B500F0DDF800F08D
:101A300051F800F0F5F800F015F800F003F940F265
:101A40002551074800F004F9012240F225510448CD
:101A500000F059F90121024800F009F910BD000019
:101A60000044004000B58DB011208DF830000020FA
:101A70008DF8310002208DF8320001208DF83300FE
:101A80000CA8FEF7FFFF1048FEF718FD0F48019065
:101A90000F480290102003900020059080200690AF
:101AA00000200790089009904FF440500A900020C1
:101AB0000B9001A90448FEF7C6FD0122022102484D
:101AC000FEF7B8FD0DB000BD8000024004440040A8
:101AD0003A14002008B501212420FFF7DFF9042083
:101AE000ADF8000018208DF8030003208DF80200E7
:101AF00069460D48FEF788FE0820ADF80000042076
:101B00008DF8030069460848FEF77EFE0820ADF810
:101B1000000003208DF8020010208DF803006946B4
:101B20000248FEF771FE08BD0008014000140140A4
:101B300070B540F22551284800F0BBF8012839D192
:101B400040F22551244800F083F8234800F06CF956
:101B5000C5B20A2D03D10120204908703AE00D2DAD
:101B60000DD100211D48827800F2034081540120EC
:101B70001A49087000211A48FFF727FC2AE0174885
:101B8000817800F20340455414488078401C134982
:101B90008870084680783C281CDB002404E0002183
:101BA00010480155601CC4B23C2CF8DB00200B49E6
:101BB00088700FE04FF45871074800F06DF8012865
:101BC00003D1054800F030F904E040F227710248E3
:101BD00000F06FF870BD000000440040370C00209A
:101BE000000400403A1000201FB501214804FFF70F
:101BF00045F94FF4E13000900020ADF80400ADF855
:101C00000600ADF80800ADF80C000C20ADF80A0095
:101C10006946024800F09CF81FBD000000440040E7
:101C200008B526208DF8000000208DF80100022064
:101C30008DF8020001208DF803006846FEF722FFB0
:101C400008BD00000020014988707047370C002053
:101C500010B50022002340F66A14A14200D100BF53
:101C60000A1201249440A3B2DC43048010BD21B1C8
:101C7000828942F40052828104E082894DF6FF732A
:101C80001A40828170471AB1838A0B43838202E033
:101C9000838A8B438382704702460020B1F5007F20
:101CA00000D100BF13880B400BB1012000E00020E1
:101CB000704770B50246002400230025002040F63E
:101CC0006A16B14200D100BFC1F3421501F01F03F3
:101CD000012606FA03F3012D02D19689334006E06E
:101CE000022D02D1168A334001E0968A33400C124D
:101CF000012606FA04F41688344013B10CB1012011
:101D000000E0002070BDF0B5034600240026002549
:101D1000002040F66A17B94200D100BF1846C1F34F
:101D2000421401F01F06012707FA06F5012C01D124
:101D30000C3004E0022C01D1103000E014301AB154
:101D400007682F43076002E00768AF430760F0BDF4
:101D50002DE9F04786B005460E460024A24600BF96
:101D6000A1460027B08900B100BF2F462C8A4CF64F
:101D7000FF700440F08804432C82AC894EF6F310C7
:101D80000440B08831890843718908430443AC8119
:101D9000AC8A4FF6FF400440B0890443AC8201A8EE
:101DA000FFF78CF81F48874202D1DDF810A001E050
:101DB000DDF80CA0A88900F4004040B10AEBCA008D
:101DC00000EB0A1031684900B0FBF1F807E00AEBBC
:101DD000CA0000EB0A1031688900B0FBF1F86420FA
:101DE000B8FBF0F004012009642101FB1089A889E7
:101DF00000F4004040B1322000EBC900B0FBF1F02C
:101E000000F00700044308E0322000EB09106421D1
:101E1000B0FBF1F000F00F0004432C8106B0BDE8E8
:101E2000F08700000038014001468888C0F30800B0
:101E3000704700BFFEE738B50546002000902846F1
:101E4000FEF7AAF90446200C8DF80000200A8DF850
:101E50000100E0B28DF80200032202216846FEF77D
:101E6000B5FD38BD0FB4054B10B503A9044A02985F
:101E700000F01CF810BC5DF814FB0000F121000814
:101E80000C000020004870473000002002E008C825
:101E9000121F08C1002AFAD170477047002001E0E4
:101EA00001C1121F002AFBD1704700002DE9FF4F2E
:101EB0008BB088460546002606E025280BD0DDE9D4
:101EC0000D1290476D1C761C28780028F5D10FB0B4
:101ED0003046BDE8F08F0024A146A2460122AE495B
:101EE00000E0044315F8013F203B02FA03F00842EA
:101EF000F7D128782A2810D06FF02F022878A0F187
:101F00003001092915D809EB890102EB410144F0A0
:101F1000020400EB01096D1CF0E758F8041B5FEAAE
:101F2000010903D544F40054C9F1000944F0020446
:101F30006D1C28782E2817D115F8010F44F00404E1
:101F40002A280ED06FF02F022878A0F1300109293D
:101F50000AD80AEB8A0102EB410100EB010A6D1C71
:101F6000F2E758F804AB6D1C28786C280FD006DC1B
:101F70004C2817D068280DD06A2814D104E07428A2
:101F800010D07A280FD10DE044F400140AE044F494
:101F9000801401E044F440146978814202D104F5D0
:101FA00080146D1C6D1C2878692865D006DC00281B
:101FB0008DD0632827D0642806D15DE06E2808D034
:101FC00073282AD0752877D0DDE90D129047761C4A
:101FD000E0E0C4F30250022809D003280DD0D8F85D
:101FE000001004280DD00E6008F10408D2E0D8F8E3
:101FF0000010F217C1E90062F6E7D8F800100E8071
:10200000F2E70E70F0E718F8041B8DF800100020BE
:102010008DF80100EB46012003E058F804BB4FF0B7
:10202000FF3061074FF0000701D40AE07F1C5745DD
:102030000DDA8742FADB1BF807100029F6D106E01B
:102040007F1C8742FCDB1BF807100029F8D1DDE973
:102050000D23A9EB07008146214600F0B1F830447A
:10206000C61904E0DDE90D121BF8010B90477F1E35
:10207000F8D22146484688E058F8040BC4F30251D0
:102080004FF00A0B032900D100B2042900D140B25D
:10209000002802DA40422D2102E0210505D52B213E
:1020A0008DF82410012104E006E0E10710D0202182
:1020B000F6E708AF089113E058F8040BC4F3025197
:1020C0004FF00A0B032900D180B2042900D1C0B21D
:1020D0000021EEE75946FEF76CF8303107F8011D94
:1020E0000028F7D1ADEB070000F1200B600702D507
:1020F00024F4803401E04FF0010ADA4502DDAAEB56
:102100000B0000E00020824600EB0B010898014420
:10211000A9EB01000A90E00306D4DDE90D23214676
:102120000A9800F04DF806444FF0000908E009A9AC
:1021300011F80900DDE90D12904709F10109761C3B
:1021400008998945F3DBE0030CD5DDE90D23214631
:102150000A9800F035F8064404E0DDE90D1230205D
:102160009047761CBAF10001AAF1010AF5DC05E0FE
:10217000DDE90D1217F8010B9047761CBBF1000149
:10218000ABF1010BF4DC0A982146DDE90D2300F0E8
:1021900005F806446D1C97E6092801002DE9F04179
:1021A000044600251E461746880404D405E0394637
:1021B0002020B0476D1C641EF9D52846BDE8F0818B
:1021C0002DE9F041044600251E469046C80301D57E
:1021D000302700E02027880404D505E04146384632
:1021E000B0476D1C641EF9D52846BDE8F08100009B
:1021F00070B504460D4600BF80210A480068FFF70D
:102200004BFD0028F8D0E0B206490968888000BF7D
:1022100004480068008800F040000028F8D02046FC
:1022200070BD000008000020FEF7D4F80020FEF783
:1022300081FC4FF480410948FEF77CFB4FF40041DC
:102240000748FEF775FB002006490870064908702C
:1022500003E0FFF7BFF9FFF7C3F9FAE70018014001
:1022600000200140280000202900002000404040BC
:102270004040404040404141414141404040404059
:102280004040404040404040404040404005020205
:1022900002020202020202020202020202202020C4
:1022A0002020202020202002020202020202909020
:1022B000909090901010101010101010101010101E
:1022C0001010101010101010020202020202888872
:1022D000888888880808080808080808080808087E
:1022E0000808080808080808020202024000000066
:1022F0006D220008142300080000002034000000B4
:102300008C1E000848230008340000200C1C00002C
:102310009C1E0008000000000000000000000000FB
:102320000000000000000000010203040102030499
:10233000060708090204060800000000000000006B
:08234000000000000000000095
:0400000508000131BD
:00000001FF
