:020000040800F2
:10000000481C002045010008B50C0008C309000881
:10001000B10C0008490400089B1F00080000000004
:1000200000000000000000000000000011120008A5
:10003000D30600080000000005100008B1140008F5
:100040005F0100085F0100085F0100085F01000810
:100050005F0100085F0100085F0100085F01000800
:100060005F0100085F0100085F0100085F010008F0
:100070005F0100085F010008650400085F010008D7
:100080005F010008950400085F0100085F01000897
:100090005F0100085F0100085F0100080507000814
:1000A0005F010008511500085F0100085F010008AA
:1000B0005F0100085F0100085F0100085F010008A0
:1000C0005F0100085F0100085F0100085F01000890
:1000D0005F010008491A0008991C00085F01000828
:1000E0005F0100085F0100085F0100085F01000870
:1000F0005F0100085F0100085F0100085F01000860
:100100005F0100085F0100085F0100085F0100084F
:100110005F0100085F0100085F0100085F0100083F
:100120005F0100085F0100085F0100085F0100082F
:10013000DFF80CD000F0A8F8004800479123000831
:10014000481C00200648804706480047FEE7FEE7B7
:10015000FEE7FEE7FEE7FEE7FEE7FEE7FEE7FEE777
:10016000F114000831010008A0F16101192900D83B
:1001700020387047D2B201E000F8012B491EFBD2B3
:1001800070470022F6E710B513460A4604461946A2
:10019000FFF7F0FF204610BD10B5002200E0521C12
:1001A000835C8C5CA34201D1002BF8D1D8B2E1B2C0
:1001B000401A10BD30B505460020034600E05B1C28
:1001C000934205D2EC5CC85C201A01D1002CF6D118
:1001D00030BD70B5064601F009FF046805460A22E5
:1001E0000021304600F018F82C6070BD30B50B4689
:1001F000014600202022012409E021FA02F59D4257
:1002000005D303FA02F5491B04FA02F52844151E2A
:10021000A2F10102F1DC30BD2DE9F04791460F4615
:1002200080460446002614F8015B2DB100F03EF82C
:100230000068405DC007F6D12B2D02D02D2D18D0BF
:10024000641E4A463946204600F034F827B1396822
:10025000A14201D1C7F8008071054FF002040BD50F
:100260004042002803DD01F0C1FE0460A007BDE8A4
:10027000F08746F48066E4E70028F8DA01F0B6FE7D
:1002800004606FF00040F2E7064C074D06E0E068BE
:1002900040F0010394E8070098471034AC42F6D3CD
:1002A000FFF74AFF542400087424000800487047F0
:1002B000502400082DE9F05F82460078002715469B
:1002C0008B460AF10104B946302801D09DB113E0F4
:1002D00014F8010B0127782803D0582801D045B124
:1002E0000AE00DB1102D07D10027102514F8010BDD
:1002F00002E0082500E00A250026B0460EE005FBD6
:10030000080005FB06F1012701EB10461FFA80F8F3
:10031000B6F5803F00D3B94614F8010B294600F02A
:1003200018F80028EBDABBF1000F05D00FB1641EFE
:1003300000E05446CBF80040B9F1000F06D001F0C0
:1003400055FE02210160C81EBDE8F09F48EA064044
:10035000FAE73A2800D2303820F02002412A01D3AF
:10036000A2F13700884201D34FF0FF307047000000
:100370000348008840F001000149088070470000F0
:10038000346C004010B501214FF0C05000F04CFE1D
:10039000012000F031FEFFF7EBFF012000F022F812
:1003A000012000F005F8002000F016F810BD000054
:1003B000014908607047000088860D4208B5014673
:1003C0000020009003480090009808440090009896
:1003D000008808BD006C00400149086070470000BB
:1003E00000860D42014908607047000004860D42F6
:1003F00008B500220092044A0092009A024400923A
:10040000009A116008BD0000006C004010B501F0BA
:100410006FF800F09DFC01F09BFA01F0B9FB0120A0
:1004200000F06CFF00F07EF9FFF7ACFF00F02AFC53
:100430000420FFF7C3FF0446641CA1B20420FFF7A9
:10044000D7FF00F0EBFF10BD00BFFEE710B502A024
:1004500001F0BCFD10BD00004857203A2056312E57
:10046000300D0A0010B54FF4005000F0F5F840B11F
:1004700000228021054801F0BAFC0021044800F068
:1004800039F84FF4704000F027F810BD00380140F3
:100490004400024010B54FF0007000F0DDF878B174
:1004A00000228021094801F0A2FC0021084800F048
:1004B00021F8052000F01CF90821064800F06EFA2A
:1004C0004FF0706000F008F810BD000000440040DC
:1004D000800002400014014000F0805111B1034936
:1004E000086001E0024948607047000004040240CF
:1004F0000000024021B1026842F00102026004E003
:1005000002684FF6FE731A400260704701684FF6AA
:10051000FE72114001600021016041608160C16094
:100520004B49884208D14A490839496841F00F01CE
:10053000474A083A51608AE045491431884208D157
:1005400043490839496841F0F001414A083A51608D
:100550007DE03F492831884208D13D490839496842
:1005600041F470613A4A083A516070E038493C31D0
:10057000884208D136490839496841F47041344A03
:10058000083A516063E032495031884208D130491D
:100590000839496841F470212D4A083A516056E003
:1005A0002B496431884208D129490839496841F406
:1005B0007001274A083A516049E02549783188425C
:1005C00008D123490839496841F07061204A083A46
:1005D00051603CE01F49884206D1011F096841F083
:1005E0000F01021F116032E01A491431884208D10C
:1005F0001849091F096841F0F001164A121F1160DD
:1006000025E014492831884208D11249091F096898
:1006100041F470610F4A121F116018E00D493C311E
:10062000884208D10B49091F096841F47041094A01
:10063000121F11600BE007495031884207D105496C
:10064000091F096841F47021024A121F11607047A6
:10065000080002400804024001460020002201F088
:10066000805313B1054B1A6801E0054B1A6802EA82
:1006700001030BB1012000E000207047000402409C
:10068000000002401AB103680B43036002E00368F4
:100690008B430360704710B50022026847F6F07381
:1006A0009A430C6A8B6823430C6923434C692343A8
:1006B0008C692343CC6923434C6A23438C6A2343CC
:1006C0001A430260CB6843600B6883604B68C36069
:1006D00010BD7047014608E042F6DE6201E0531E9D
:1006E0009AB2002AFBDC4B1E99B20029F4DC704759
:1006F0004FF4FA5200FB02F100BF0A1EA1F1010102
:10070000FBD170477047000010B502A001F05EFCFD
:1007100010BD00004657203A2056312E302E300DA5
:100720000A00000008B5012140F2FD1000F08CFC29
:100730000220ADF8000003208DF8020010208DF893
:1007400003006946444800F095F84FF44040ADF886
:10075000000003208DF8020010208DF80300694688
:100760003E4800F087F80120ADF8000048208DF8E1
:1007700003006946394800F07DF84FF46060ADF839
:10078000000048208DF803006946354800F072F8F3
:100790000320ADF8000048208DF803006946314879
:1007A00000F068F80320ADF8000048208DF8030041
:1007B00069462D4800F05EF84FF6FF70ADF8000076
:1007C00048208DF803006946284800F053F843F6A6
:1007D000FC70ADF8000048208DF8030069461F4802
:1007E00000F048F84FF48070ADF8000003208DF859
:1007F000020010208DF803006946174800F03AF80F
:100800004CF28000ADF8000003208DF802001020AB
:100810008DF803006946124800F02CF84FF4707010
:10082000ADF8000003208DF8020010208DF80300C1
:1008300069460F4800F01EF847F27C00ADF8000052
:1008400003208DF8020010208DF803006946064849
:1008500000F010F808BD0000000801400018014039
:1008600000140140000C014000200140001C014028
:10087000001001402DE9F04102460025002600202D
:1008800000230024002791F803C00CF00F0591F815
:1008900003C00CF0100CBCF1000F03D091F802C0A3
:1008A0004CEA050591F800C0BCF1000F31D0146886
:1008B00000202BE04FF0010C0CFA00F3B1F800C05F
:1008C0000CEA03069E4220D183004FF00F0C0CFA75
:1008D00003F7BC4305FA03FC4CEA040491F803C097
:1008E000BCF1280F06D14FF0010C0CFA00FCC2F845
:1008F00014C00AE091F803C0BCF1480F05D14FF0D5
:10090000010C0CFA00FCC2F810C0401C0828D1D31E
:100910001460B1F800C0BCF1FF0F34DD5468002052
:100920002EE000F1080C4FF0010808FA0CF3B1F8C2
:1009300000C00CEA03069E4221D183004FF00F0C49
:100940000CFA03F7BC4305FA03FC4CEA040491F8E3
:1009500003C0BCF1280F05D100F1080C08FA0CF80F
:10096000C2F8148091F803C0BCF1480F07D100F120
:10097000080C4FF0010808FA0CF8C2F81080401C6F
:100980000828CED35460BDE8F08102460020936869
:100990000B400BB1012000E000207047416170471F
:1009A000016170470AB1016100E041617047014691
:1009B000002002E0491C421CD0B20A78002AF9D17A
:1009C000704700BFFEE7000010B50CA001F0FEFA72
:1009D00017A001F0FBFA25A001F0F8FA2FA001F012
:1009E000F5FA3BA001F0F2FA45A001F0EFFA4FA0B2
:1009F00001F0ECFA5AA001F0E9FA10BD0A5C2A2ACB
:100A00002A2A2A2A2A2A2A2A2A2A2A2A2A2A2A2A46
:100A10002A2A2A2A48656C702A2A2A2A2A2A2A2A55
:100A20002A2A2A2A2A2A2A2A2A2A2A2A5C0A000068
:100A30005055534820494E2020202020202020209F
:100A400020202020202020202020202020202022A4
:100A500043796C696E64657220737472657463683F
:100A60006564206F7574220A0000000050555348D9
:100A7000204F5554202020202020202020202020DE
:100A800020202020202020202243796C696E64657C
:100A90007220726573746572220A000052455345D4
:100AA0005420202020202020202020202020202012
:100AB00020202020202020202020202020224669C5
:100AC000787475726520726573746572220A00000D
:100AD0004649585455524549445F20202020202043
:100AE0002020202020202020202020202257726932
:100AF00074652066697874757265204944220A001D
:100B000052454144204649585455524549442020B5
:100B100020202020202020225265616420666978F0
:100B200074757265204944220A0000004649524DFE
:100B3000574152452056455253494F4E20202020C0
:100B4000225265616420746865206669726D776100
:100B500072652076657273696F6E220A000000006C
:100B600048415244574152452056455253494F4EF1
:100B70002020225265616420686172647761726529
:100B80002076657273696F6E220A0000F0B5044624
:100B90000D46164600F072FD07460FB13846F0BD0F
:100BA000A02000F041FD00F0ADFD18B900F092FD6D
:100BB0000020F4E7281200F037FD00F0A3FDE8B2B2
:100BC00000F032FD00F09EFD00F058FDA12000F085
:100BD0002BFD00F097FD07E000F0FCFC207000F01A
:100BE000C5FC641C701EC6B2012EF5D100F0F2FCEB
:100BF000207000F0D5FC00F06DFD0020CFE7000074
:100C00002DE9F04104460D461646002220211C48DD
:100C1000FFF7C8FE0120FFF75DFD00F02FFD07463E
:100C200017B13846BDE8F081A02000F0FDFC00F0CF
:100C300069FD18B900F04EFD0020F3E7281200F01E
:100C4000F3FC00F05FFDE8B200F0EEFC00F05AFDAE
:100C500007E0207800F0E8FC00F054FD641C701EF2
:100C6000C6B2002EF5D100F035FD0C20FFF732FDA5
:100C7000012220210248FFF795FE0020D2E7000064
:100C8000000C014008B50121082000F0DDF9C0206A
:100C9000ADF8000003208DF8020014208DF8030049
:100CA00069460248FFF7E6FD08BD0000000C014060
:100CB00000BFFEE77047000070B5002100230F223F
:100CC000C47804B3154C246804F4E064C4F5E0640B
:100CD000210AC1F10403CA40447804FA03F184787C
:100CE0001440214309010E4C0678A155047804F004
:100CF0001F050124AC4005786D11AD0005F1E0251C
:100D0000C5F8004109E0047804F01F050124AC4057
:100D1000044D0678761145F8264070BD0CED00E0D4
:100D200000E400E080E100E002490143024A116072
:100D3000704700000000FA050CED00E0024A0A408E
:100D40000243024B1A60704780FFFF1F08ED00E06E
:100D500010B500214FF00060FFF7F0FF4FF4A060E6
:100D6000FFF7E2FF10BD000010B5044679490C8082
:100D70000846007800F0010028B14FF48041764821
:100D8000FFF70CFE04E04FF480417348FFF708FEC4
:100D900070480078C0F3400028B14FF400416E481D
:100DA000FFF7FCFD04E04FF400416B48FFF7F8FD4E
:100DB00068480078C0F3800020B104216748FFF73D
:100DC000EDFD03E004216548FFF7EAFD6148007886
:100DD000C0F3C00020B108216048FFF7DFFD03E049
:100DE00008215E48FFF7DCFD5A480078C0F3001088
:100DF00020B180215A48FFF7D1FD03E080215848F7
:100E0000FFF7CEFD53480078C0F3401028B14FF4EF
:100E100080715348FFF7C2FD04E04FF480715048E1
:100E2000FFF7BEFD4B480078C0F3801028B14FF4A7
:100E300000714B48FFF7B2FD04E04FF400714848E1
:100E4000FFF7AEFD43480078C0F3C01028B14FF45F
:100E500080714448FFF7A2FD04E04FF480714148DF
:100E6000FFF79EFD3B480088C0F3002020B14021E1
:100E70003B48FFF793FD03E040213948FFF790FD21
:100E800034480088C0F3402020B140213348FFF7A8
:100E900085FD03E040213148FFF782FD2D480088A1
:100EA000C0F3802020B120212C48FFF777FD03E01C
:100EB00020212A48FFF774FD26480088C0F3C0208F
:100EC00020B110212548FFF769FD03E010212348D8
:100ED000FFF766FD1F480088C0F3003028B14FF4CB
:100EE00080411E48FFF75AFD04E04FF480411B4843
:100EF000FFF756FD17480088C0F3403028B14FF483
:100F000000511648FFF74AFD04E04FF40051134822
:100F1000FFF746FD0F480088C0F3803028B14FF43A
:100F200080510E48FFF73AFD04E04FF480510B4822
:100F3000FFF736FD07480088C0F3C03020B180219C
:100F40000548FFF72BFD03E080210348FFF728FD4C
:100F500010BD0000040000200014014000200140EA
:100F6000001001400008014010B504210C48FFF7B3
:100F70000CFD98B910210A48FFF707FD01280DD193
:100F800081030848FFF70AFD00BF40210448FFF72E
:100F9000FCFC0028F9D104A001F018F810BD0000F5
:100FA00000180140001401404F4B405F400D0A0003
:100FB00010B504210C48FFF7E8FC98B910210A4845
:100FC000FFF7E3FC01280DD181030848FFF7E8FC97
:100FD00000BF20210448FFF7D8FC0028F9D104A065
:100FE00000F0F4FF10BD00000018014000140140A3
:100FF000304B405F400D0A00014908627047000015
:1010000000000E427047000029B1064A52690243AF
:10101000044B5A6104E0034A52698243014B5A610E
:10102000704700000010024029B1064AD26902430D
:10103000044BDA6104E0034AD2698243014BDA616E
:10104000704700000010024029B1064A926902432D
:10105000044B9A6104E0034A92698243014B9A610E
:10106000704700000010024030B50021002200242B
:1010700000232D4D6D6805F00C0121B1042905D028
:10108000082923D105E0294D056022E0274D0560A0
:101090001FE0254D6D6805F47012234D6D6805F451
:1010A0008034022505EB92421CB9214D5543056061
:1010B0000BE01D4D6D6805F400351DB11C4D554309
:1010C000056002E0194D5543056002E0174D0560CB
:1010D00000BF00BF144D6D6805F0F0010909154D02
:1010E0006B5C0568DD4045600F4D6D6805F4E0619F
:1010F000090A104D6B5C4568DD4085600A4D6D68DE
:1011000005F46051C90A0B4D6B5C4568DD40C56054
:10111000054D6D6805F44041890B074D6B5CC56852
:10112000B5FBF3F5056130BD0010024000127A00F6
:1011300000093D00100000202000002008B500201C
:101140000090032202216846FFF720FD9DF8000071
:1011500000049DF8011000EB01209DF802100844E6
:1011600008BD000010B5002410211848FFF70DFC41
:1011700058BB04211548FFF708FC30BB3220FFF7AD
:10118000B7FA04211148FFF700FC38B910210F48C5
:10119000FFF7FBFB10B90CB9601CC4B2012C14D1D1
:1011A00004210A48FFF7F1FB78B94FF4FA70FFF712
:1011B0009FFAA1030648FFF7F3FB00BF2021034875
:1011C000FFF7E3FB0028F9D1002410BD001801400F
:1011D0000014014010B54FF4FA70FFF789FA4FF48C
:1011E00080410748FFF7DCFB00BF20210548FFF7DF
:1011F000CCFB0028F9D104A000F0E8FE10BD0000EF
:1012000000140140001801404F4B405F400D0A00A0
:10121000704710B500F002F810BD00000CB50020BA
:10122000019000903348006840F4803031490860F4
:1012300000BF3048006800F4003000900198401C66
:101240000190009818B90198B0F5A06FF1D1294824
:10125000006800F4003010B10120009001E000208F
:1012600000900098012843D12348006840F0100006
:10127000214908600846006820F00300086008461D
:10128000006840F0020008601A4840681949486048
:101290000846406848600846406840F480604860FE
:1012A0000846406820F47C1048600846406840F4D6
:1012B000E81048600846006840F08070086000BF91
:1012C0000C48006800F000700028F9D00948406818
:1012D00020F00300074948600846406840F00200DB
:1012E000486000BF0348406800F00C000828F9D1AE
:1012F0000CBD00000010024000200240062818D259
:10130000DFE800F01703070B0F130D490D4A1160BA
:1013100013E00D490B4A11600FE00C49094A1160B6
:101320000BE00B49074A116007E00A49054A1160C2
:1013300003E00349034A116000BF00BF704700008B
:1013400000380140080000200044004000480040F0
:10135000004C00400050004070B5002500240821DA
:101360002748FFF712FB002848D104212548FFF742
:101370000CFB002842D13220FFF7BAF9082120489F
:10138000FFF703FB30B904211E48FFF7FEFA08B946
:10139000681CC5B200BF08211948FFF7F6FA28B942
:1013A00004211848FFF7F1FA0028F4D0012D1CD1D0
:1013B00004211348FFF7E9FAB8B910211048FFF7E4
:1013C000E4FA012811D14FF4FA70FFF791F9A9035B
:1013D0000D48FFF7E3FA00BF40210948FFF7D5FAAF
:1013E0000028F9D10025601CC4B2012C06D10024CC
:1013F00006A000F0EBFD07A000F0E8FD70BD0000C6
:1014000000180140001C0140001401405374617237
:10141000740D0A004F4B405F400D0A0070B586B056
:10142000002401A8FFF720FE64210298B0FBF1F42C
:10143000042000F029F82146B1F1807F00D31DE09F
:1014400021F07F40401E4FF0E022506150170F22E4
:10145000002807DA13071E0E094B00F00F052D1F99
:101460005E5503E013071D0E064B1D5400BF002000
:101470004FF0E02290610720106100BF06B070BD00
:1014800018ED00E000E400E0042808D14FF0E0216E
:10149000096941F004014FF0E022116107E04FF0CB
:1014A000E021096921F004014FF0E0221161704749
:1014B00010B50D480068401C0B49086008460068DC
:1014C000322804D102210948FFF768FA0AE00648E9
:1014D0000068642806D102210448FFF761FA002061
:1014E0000149086010BD00003800002000080140DC
:1014F00010B51348006840F0010011490860084623
:101500004068104908400E494860084600680E4986
:1015100008400B4908600846006820F480200860F5
:101520000846406820F4FE0048604FF41F008860C1
:10153000FFF76FFE4FF000600449086010BD000027
:10154000001002400000FFF8FFFFF6FE08ED00E08B
:10155000704721B1028842F00102028004E0028853
:101560004FF6FE731A4002807047000000B540201D
:101570000A49086000F0EAF880200849086000F095
:10158000E5F840200549091F086000F0DFF8402019
:101590000249086000F0DAF800BD0000140C0140B8
:1015A00000B540200A49086000F0D0F880200849C2
:1015B000091F086000F0CAF840200549091F0860AB
:1015C00000F0C4F840200249086000F0BFF800BDF8
:1015D000140C014010B50824002380201149086034
:1015E00014E05806030E40200E49091D086000F063
:1015F000ADF840200B49086000F0A8F80948083809
:10160000006800F0800008B143F00103201EA4F13F
:101610000101CCB2E5D140200249091D08601846FD
:1016200010BD0000100C014010B50346082419E05D
:1016300040201149086000F089F803F0800020B1D3
:1016400080200D49091F086002E080200A490860D7
:101650005806030E00F07AF840200749091F086079
:1016600000F074F8201EA4F10101CCB2E0D14020BA
:101670000149086010BD0000140C014000B5802035
:10168000134908604020086000F060F810480838EE
:10169000006808B9012000E0002000F0800008B1D7
:1016A000012000BD80200A49091D086000F04EF8A5
:1016B00007480838006800F0800008B10220F0E711
:1016C00040200349091D086000F040F80020E8E7C9
:1016D000100C014000B580200949086040200860D6
:1016E00000F034F840200649091F086000F02EF889
:1016F00080200349091F086000F028F800BD0000A1
:10170000140C014000B540200F49086000F01EF89D
:1017100080200D49091F086000F018F840200A4990
:10172000091F086000F012F807480C38006800F044
:10173000800020B1402004490860002000BD402006
:10174000014908600120F9E7140C01400A2000BF9C
:10175000011EA0F10102D0B2FAD1704710B5FFF717
:1017600001FDFFF7F9FD10BD2DE9F047A0B00026FF
:101770000027B046B14680216846FEF702FD4F487B
:10178000007801287BD100204C490870002408E033
:101790004B49085DFEF7E8FCC0B20DF80400601C80
:1017A000C4B246488078A042F2DC00200DF8040064
:1017B0006846FFF7FCF80546002D7BD09DF8000039
:1017C000462839D048285BD0502802D052286CD106
:1017D00014E069463BA0FEF7DFFC10B9FFF7C4FB3D
:1017E0000126694639A0FEF7D7FC10B9FFF7E0FBE8
:1017F000012616B938A000F0E9FB5AE069463AA084
:10180000FEF7CAFC18B9FFF7E5FC4FF0010869467E
:1018100037A0FEF7C1FC40B9FFF790FC8246514665
:1018200037A000F0D3FB4FF00108B8F1000F02D150
:1018300029A000F0CBFB3CE0694636A0FEF7ACFCEB
:1018400018B9FEF761FF4FF001090A22694636A078
:10185000FEF7B0FC60B90DF10A0000F0A0FBFFF745
:101860006DFC8246514626A000F0B0FB4FF0010906
:10187000B9F1000F02D118A000F0A8FB19E019E09F
:1018800069462CA0FEF788FC10B9FEF7DFFD0127A2
:1018900069462DA0FEF780FC10B9FFF795F80127E7
:1018A00017B90DA000F092FB03E00BA000F08EFB37
:1018B00000BF00BF002020B0BDE8F087400000203E
:1018C000430400205055534820494E00505553487A
:1018D000204F555400000000436F6D6D616E642011
:1018E0004572726F720D0A00524553455400000054
:1018F00052454144204649585455524549440000F8
:10190000466978747572654944203A2025303564FB
:101910000A0000004649524D574152452056455253
:1019200053494F4E0000000046495854555245490E
:10193000445F0000484152445741524520564552A9
:1019400053494F4E0000000048454C500000000035
:1019500010B500F0D9F800F055F800F0F1F800F0FB
:1019600015F800F0FFF840F22551074800F024FA7E
:10197000012240F22551044800F079FA0121024881
:1019800000F029FA10BD00000038014000B58DB00C
:1019900001210846FFF738FB0E208DF830000020AB
:1019A0008DF8310002208DF8320001208DF83300CF
:1019B0000CA8FFF781F91048FEF7A8FD0F48019029
:1019C0000F48029010200390002005908020069080
:1019D00000200790089009904FF440500A90002092
:1019E0000B9001A90448FEF756FE0122022102488D
:1019F000FEF748FE0DB000BD44000240043801402F
:101A00004308002008B501210420FFF71DFB4FF417
:101A10000070ADF8000018208DF8030003208DF849
:101A2000020069460748FEF725FF4FF48060ADF8D5
:101A3000000004208DF8030069460248FEF71AFFF3
:101A400008BD00000008014070B540F225512B4848
:101A500000F0E3F9012840D140F22551274800F079
:101A6000ABF9264800F094FAC5B20A2D45D00D2DE9
:101A700029D123484078022819DD002407E02048B6
:101A8000C01C015D00F580600155601CC4B21C489B
:101A90004078A042F3DC00211A48015518484078EC
:101AA00017498870002048700120087025E0002048
:101AB000134981F803040846407888700020487074
:101AC0000120087019E00E484178C01C4554C01E22
:101AD0004078401C0A4948700FE04FF4587107489D
:101AE00000F08EF9012803D1044800F051FA04E017
:101AF00040F22771014800F090F970BD00380140B4
:101B000040000020430400201FB501218803FFF797
:101B10009BFA4FF4164000900020ADF80400ADF899
:101B20000600ADF80800ADF80C000C20ADF80A0076
:101B30006946024800F0C0F91FBD000000380140AE
:101B400008B525208DF8000000208DF80100022046
:101B50008DF8020001208DF803006846FFF7ACF80D
:101B600008BD00000021084A1170917051700020DA
:101B700007E0002205490A54A1F580610A54411C7E
:101B8000C8B23C28F5DB7047400000204304002029
:101B900010B500F0DDF800F051F800F0F5F800F0B5
:101BA00015F800F003F940F22551074800F004F958
:101BB000012240F22551044800F059F90121024860
:101BC00000F009F910BD00000044004000B58DB0E0
:101BD00011208DF8300000208DF8310002208DF8A2
:101BE000320001208DF833000CA8FFF765F810488B
:101BF000FEF78CFC0F4801900F48029010200390D4
:101C00000020059080200690002007900890099001
:101C10004FF440500A9000200B9001A90448FEF7B1
:101C20003AFD012202210248FEF72CFD0DB000BD55
:101C300080000240044400404614002008B5012101
:101C40002420FFF701FA0420ADF8000018208DF8D9
:101C5000030003208DF8020069460D48FEF70AFED6
:101C60000820ADF8000004208DF8030069460848FC
:101C7000FEF700FE0820ADF8000003208DF80200FA
:101C800010208DF8030069460248FEF7F3FD08BDF9
:101C9000000801400014014070B540F22551284869
:101CA00000F0BBF8012839D140F22551244800F05A
:101CB00083F8234800F06CF9C5B20A2D03D1012046
:101CC000204908703AE00D2D0DD100211D48827881
:101CD00000F20340815401201A49087000211A487B
:101CE000FFF737FC2AE01748817800F2034045549B
:101CF00014488078401C13498870084680783C2836
:101D00001CDB002404E0002110480155601CC4B213
:101D10003C2CF8DB00200B4988700FE04FF4587121
:101D2000074800F06DF8012803D1054800F030F9AC
:101D300004E040F22771024800F06FF870BD000027
:101D400000440040430C00200004004046100020E6
:101D50001FB501214804FFF767F94FF4E130009007
:101D60000020ADF80400ADF80600ADF80800ADF8AD
:101D70000C000C20ADF80A006946024800F09CF8FF
:101D80001FBD00000044004008B526208DF800006B
:101D900000208DF8010002208DF8020001208DF84E
:101DA00003006846FEF788FF08BD000000200149D7
:101DB00088707047430C002010B50022002340F6C5
:101DC0006A14A14200D100BF0A1201249440A3B2B8
:101DD000DC43048010BD21B1828942F4005282812B
:101DE00004E082894DF6FF731A40828170471AB170
:101DF000838A0B43838202E0838A8B43838270470A
:101E000002460020B1F5007F00D100BF13880B40CF
:101E10000BB1012000E00020704770B5024600249D
:101E200000230025002040F66A16B14200D100BF11
:101E3000C1F3421501F01F03012606FA03F3012D39
:101E400002D19689334006E0022D02D1168A334032
:101E500001E0968A33400C12012606FA04F4168833
:101E6000344013B10CB1012000E0002070BDF0B58A
:101E70000346002400260025002040F66A17B942D8
:101E800000D100BF1846C1F3421401F01F0601271C
:101E900007FA06F5012C01D10C3004E0022C01D127
:101EA000103000E014301AB107682F43076002E0D9
:101EB0000768AF430760F0BD2DE9F04786B00546DF
:101EC0000E460024A24600BFA1460027B08900B1FB
:101ED00000BF2F462C8A4CF6FF700440F088044364
:101EE0002C82AC894EF6F3100440B0883189084347
:101EF000718908430443AC81AC8A4FF6FF4004402B
:101F0000B0890443AC8201A8FFF7AEF81F488742AE
:101F100002D1DDF810A001E0DDF80CA0A88900F4E2
:101F2000004040B10AEBCA0000EB0A1031684900DA
:101F3000B0FBF1F807E00AEBCA0000EB0A103168C9
:101F40008900B0FBF1F86420B8FBF0F0040120092F
:101F5000642101FB1089A88900F4004040B13220BF
:101F600000EBC900B0FBF1F000F00700044308E00B
:101F7000322000EB09106421B0FBF1F000F00F00FB
:101F800004432C8106B0BDE8F08700000038014012
:101F900001468888C0F30800704700BFFEE738B5E7
:101FA0000546002000902846FEF713F90446200C51
:101FB0008DF80000200A8DF80100E0B28DF80200D3
:101FC000032202216846FEF71BFE38BD0FB4054B05
:101FD00010B503A9044A029800F01CF810BC5DF883
:101FE00014FB0000592300080C0000200048704733
:101FF0003C00002002E008C8121F08C1002AFAD1E4
:1020000070477047002001E001C1121F002AFBD178
:10201000704700002DE9FF4F8BB08846054600262B
:1020200006E025280BD0DDE90D1290476D1C761CCB
:1020300028780028F5D10FB03046BDE8F08F002495
:10204000A146A2460122AE4900E0044315F8013F33
:10205000203B02FA03F00842F7D128782A2810D052
:102060006FF02F022878A0F13001092915D809EB6B
:10207000890102EB410144F0020400EB01096D1CEF
:10208000F0E758F8041B5FEA010903D544F4005453
:10209000C9F1000944F002046D1C28782E2817D1DC
:1020A00015F8010F44F004042A280ED06FF02F0217
:1020B0002878A0F1300109290AD80AEB8A0102EB3D
:1020C000410100EB010A6D1CF2E758F804AB6D1CEE
:1020D00028786C280FD006DC4C2817D068280DD043
:1020E0006A2814D104E0742810D07A280FD10DE0AA
:1020F00044F400140AE044F4801401E044F4401471
:102100006978814202D104F580146D1C6D1C287819
:10211000692865D006DC00288DD0632827D0642884
:1021200006D15DE06E2808D073282AD0752877D0B4
:10213000DDE90D129047761CE0E0C4F3025002285E
:1021400009D003280DD0D8F8001004280DD00E6057
:1021500008F10408D2E0D8F80010F217C1E90062D3
:10216000F6E7D8F800100E80F2E70E70F0E718F8E6
:10217000041B8DF8001000208DF80100EB460120B3
:1021800003E058F804BB4FF0FF3061074FF0000741
:1021900001D40AE07F1C57450DDA8742FADB1BF8B1
:1021A00007100029F6D106E07F1C8742FCDB1BF8F4
:1021B00007100029F8D1DDE90D23A9EB07008146BE
:1021C000214600F0B1F83044C61904E0DDE90D12F3
:1021D0001BF8010B90477F1EF8D22146484688E045
:1021E00058F8040BC4F302514FF00A0B032900D135
:1021F00000B2042900D140B2002802DA40422D2169
:1022000002E0210505D52B218DF82410012104E0E1
:1022100006E0E10710D02021F6E708AF089113E0AF
:1022200058F8040BC4F302514FF00A0B032900D1F4
:1022300080B2042900D1C0B20021EEE75946FDF773
:10224000D5FF303107F8011D0028F7D1ADEB0700AD
:1022500000F1200B600702D524F4803401E04FF038
:10226000010ADA4502DDAAEB0B0000E000208246FD
:1022700000EB0B0108980144A9EB01000A90E00370
:1022800006D4DDE90D2321460A9800F04DF80644F6
:102290004FF0000908E009A911F80900DDE90D1265
:1022A000904709F10109761C08998945F3DBE003A1
:1022B0000CD5DDE90D2321460A9800F035F80644D7
:1022C00004E0DDE90D1230209047761CBAF10001E0
:1022D000AAF1010AF5DC05E0DDE90D1217F8010BA2
:1022E0009047761CBBF10001ABF1010BF4DC0A98BE
:1022F0002146DDE90D2300F005F806446D1C97E644
:10230000092801002DE9F041044600251E46174624
:10231000880404D405E039462020B0476D1C641EB3
:10232000F9D52846BDE8F0812DE9F04104460025A5
:102330001E469046C80301D5302700E020278804B8
:1023400004D505E041463846B0476D1C641EF9D5FA
:102350002846BDE8F081000070B504460D4600BF78
:1023600080210A480068FFF74BFD0028F8D0E0B252
:1023700006490968888000BF04480068008800F0AA
:1023800040000028F8D0204670BD00000800002062
:10239000FEF73CF80020FEF7E7FC4FF480410948C7
:1023A000FEF7FEFA4FF400410748FEF7F7FA4FF444
:1023B0007A70FEF79DF903E0FFF7D0F9FFF7D4F943
:1023C000FAE70000001801400020014000404040B2
:1023D00040404040404041414141414040404040F8
:1023E00040404040404040404040404040050202A4
:1023F0000202020202020202020202020220202063
:1024000020202020202020020202020202029090BE
:1024100090909090101010101010101010101010BC
:102420001010101010101010020202020202888810
:10243000888888880808080808080808080808081C
:102440000808080808080808020202024000000004
:10245000CD23000874240008000000204000000084
:10246000F41F0008B424000840000020081C0000ED
:102470000420000800000000000000000000000030
:102480000000000000000000010203040102030438
:10249000060708090204060800000000000000000A
:1024A000000000000000000000000000000000002C
:0424B0000000000028
:0400000508000131BD
:00000001FF
