:020000040800F2
:100000006010002045010008610F0008530A000835
:100010005D0F000845050008BB1D0008000000003A
:10002000000000000000000000000000B111000806
:10003000CB07000800000000211000088D13000805
:100040005F0100085F0100085F0100085F01000810
:100050005F0100085F0100085F0100085F01000800
:100060005F0100085F0100085F0100085F010008F0
:100070005F0100085F010008490500085F010008F2
:100080005F0100085F0100085F0100085F010008D0
:100090005F0100085F0100085F010008E107000838
:1000A0005F0100082D1400085F0100085F010008CF
:1000B00079140008711500085F0100085F0100084D
:1000C0005F0100085F0100085F0100085F01000890
:1000D0005F010008911A00085F0100085F01000835
:1000E0005F0100085F0100085F0100085F01000870
:1000F0005F0100085F0100085F0100085F01000860
:100100005F0100085F0100085F0100085F0100084F
:100110005F0100085F0100085F0100085F0100083F
:100120005F0100085F0100085F0100085F0100082F
:10013000DFF80CD000F02EF800480047A12000089E
:10014000601000200648804706480047FEE7FEE7AB
:10015000FEE7FEE7FEE7FEE7FEE7FEE7FEE7FEE777
:10016000CD1300083101000830B50B4601460020D0
:100170002022012409E021FA02F59D4205D303FA69
:1001800002F5491B04FA02F52844151EA2F10102EA
:10019000F1DC30BD064C074D06E0E06840F001039D
:1001A00094E8070098471034AC42F6D3FFF7C4FF39
:1001B000A0230008C023000810B500F027F800F0C5
:1001C00003F800F0F3F910BD08B50121102000F08C
:1001D00065FF0F20ADF8000000208DF8030003201C
:1001E0008DF802006946024800F090FB08BD00004F
:1001F0000010014021B1826842F00102826003E0F8
:10020000826822F0010282607047000000B585B06C
:100210000121480200F042FF4FF4004000F002FFCD
:100220000020009001208DF804008DF805004FF4A7
:10023000602002900020039004208DF81000694691
:100240001E4800F05DF8012000F0F4F805230122BB
:100250000A211A4800F07CF8052302220B211748D6
:1002600000F076F8052303220C21144800F070F802
:10027000052304220D21114800F06AF801210F48DE
:1002800000F01EF801210D48FFF7B4FF0B4800F005
:10029000BBF800BF094800F028F80028FAD1074849
:1002A00000F0C2F800BF054800F015F80028FAD1A8
:1002B0000121024800F0ADF805B000BD0024014066
:1002C00021B1826842F48072826003E0826822F485
:1002D000807282607047014600208A6802F0040242
:1002E0000AB1012000E000207047014600208A6822
:1002F00002F008020AB1012000E00020704700006F
:1003000030B502460020002350680F4C20400D7984
:100310000C6844EA05242043506090680B4C204050
:10032000D1E902542C434D7944EA450420439060BE
:10033000D06A20F470000C7C641EE4B2234340EACF
:100340000350D06230BD0000FFFEF0FFFDF7F1FF6B
:10035000F0B504460D4600200021092D11DDE068AE
:10036000A5F10A0606EB4607072606FA07F18843B9
:10037000A5F10A0606EB460603FA06F10843E0601B
:100380000CE0206905EB4507072606FA07F18843CC
:1003900005EB450603FA06F108432061072A0FDA48
:1003A000606B561E06EB86071F2606FA07F1884388
:1003B000561E06EB860605FA06F10843606322E046
:1003C0000D2A0FDA206BD61F06EB86071F2606FACA
:1003D00007F18843D61F06EB860605FA06F10843A7
:1003E000206310E0E06AA2F10D0606EB86071F26E7
:1003F00006FA07F18843A2F10D0606EB860605FA18
:1004000006F10843E062F0BD816841F008018160B7
:10041000704721B1826842F4A002826003E08268E2
:1004200022F4A00282607047816841F0040181607B
:100430007047000030B10749096841F40001054ADE
:10044000116005E00349096821F40001014A1160C7
:1004500070470000082401400348008840F0010074
:100460000149088070470000346C004010B501213C
:100470004FF0C05000F0F2FD012000F0CBFDFFF77F
:10048000EBFF012000F022F8012000F005F8002029
:1004900000F016F810BD0000014908607047000028
:1004A00088860D4208B50146002000900348009060
:1004B0000098084400900098008808BD006C004037
:1004C000014908607047000000860D42014908603C
:1004D0007047000004860D4208B500220092044ACD
:1004E0000092009A02440092009A116008BD000038
:1004F000006C004010B500F069FF00F07FFD01F0D6
:100500004BFA00F0F5FF01F06BF8012000F0C6FE99
:1005100000F068F9FFF7AAFF00F09EFA002000F053
:10052000B1FA002000F0DCFBFFF746FE0420FFF7E5
:10053000B9FF0446641CA1B20420FFF7CDFF00F010
:10054000DBFE10BD00BFFEE710B54FF4005000F019
:10055000FFF840B100228021054801F058FB00213E
:10056000044800F017F84FF4704000F005F810BD93
:10057000003801404400024000F0805111B10349AD
:10058000086001E00249486070470000040402402E
:100590000000024021B1026842F00102026004E062
:1005A00002684FF6FE731A400260704700B58BB0C8
:1005B000114800F027F811480090114801900020E0
:1005C00002900420039000200490802005904000B9
:1005D00006908000079020200890000209900020DB
:1005E0000A906946044800F0D2F801210248FFF75A
:1005F000D1FF0BB000BD0000080002404C240140B8
:10060000500C002001684FF6FE721140016000217D
:10061000016041608160C1604B49884208D14A490C
:100620000839496841F00F01474A083A51608AE0A9
:1006300045491431884208D143490839496841F095
:10064000F001414A083A51607DE03F492831884233
:1006500008D13D490839496841F470613A4A083A7D
:10066000516070E038493C31884208D13649083938
:10067000496841F47041344A083A516063E03249B4
:100680005031884208D130490839496841F4702115
:100690002D4A083A516056E02B496431884208D10E
:1006A00029490839496841F47001274A083A5160DC
:1006B00049E025497831884208D1234908394968F9
:1006C00041F07061204A083A51603CE01F4988427D
:1006D00006D1011F096841F00F01021F116032E0CD
:1006E0001A491431884208D11849091F096841F094
:1006F000F001164A121F116025E014492831884282
:1007000008D11249091F096841F470610F4A121F8C
:10071000116018E00D493C31884208D10B49091F8E
:10072000096841F47041094A121F11600BE0074942
:100730005031884207D10549091F096841F47021E9
:10074000024A121F1160704708000240080402406C
:1007500001460020002201F0805313B1054B1A68B6
:1007600001E0054B1A6802EA01030BB1012000E029
:100770000020704700040240000002401AB10368E4
:100780000B43036002E003688B430360704710B5BE
:100790000022026847F6F0739A430C6A8B68234381
:1007A0000C6923434C6923438C692343CC6923435D
:1007B0004C6A23438C6A23431A430260CB6843602C
:1007C0000B6883604B68C36010BD70474FF4FA52EA
:1007D00000FB02F100BF0A1EA1F10101FBD170472D
:1007E0007047000008B5012140F2FD1000F056FCF2
:1007F0002020ADF8000003208DF8020010208DF8B5
:10080000030069463A4800F081F841F6FC70ADF803
:10081000000003208DF8020010208DF803006946C7
:10082000344800F073F840F2FF70ADF80000032088
:100830008DF8020010208DF8030069462E4800F064
:1008400065F80320ADF800008DF8020010208DF847
:1008500003006946294800F059F8D720ADF8000098
:1008600003208DF8020010208DF80300694624480B
:1008700000F04CF848F23000ADF8000003208DF88D
:10088000020010208DF8030069461E4800F03EF873
:100890000320ADF800008DF8020010208DF8030051
:1008A0006946194800F032F84FF47840ADF800007E
:1008B00003208DF8020010208DF8030069460E48D1
:1008C00000F024F84FF4C060ADF8000048208DF827
:1008D00003006946094800F019F88020ADF80000CF
:1008E00048208DF803006946014800F00FF808BD64
:1008F0000014014000180140001C0140002001408C
:100900000008014000100140000C01402DE9F041B9
:10091000024600250026002000230024002791F82D
:1009200003C00CF00F0591F803C00CF0100CBCF1E3
:10093000000F03D091F802C04CEA050591F800C001
:10094000BCF1000F31D0146800202BE04FF0010CF7
:100950000CFA00F3B1F800C00CEA03069E4220D165
:1009600083004FF00F0C0CFA03F7BC4305FA03FCAD
:100970004CEA040491F803C0BCF1280F06D14FF0F3
:10098000010C0CFA00FCC2F814C00AE091F803C094
:10099000BCF1480F05D14FF0010C0CFA00FCC2F875
:1009A00010C0401C0828D1D31460B1F800C0BCF1BD
:1009B000FF0F34DD546800202EE000F1080C4FF0EA
:1009C000010808FA0CF3B1F800C00CEA03069E42D5
:1009D00021D183004FF00F0C0CFA03F7BC4305FA4A
:1009E00003FC4CEA040491F803C0BCF1280F05D1C4
:1009F00000F1080C08FA0CF8C2F8148091F803C052
:100A0000BCF1480F07D100F1080C4FF0010808FABB
:100A10000CF8C2F81080401C0828CED35460BDE802
:100A2000F0810246002093680B400BB1012000E0EA
:100A3000002070474161704701617047024640F6EF
:100A4000D84002FB00F1C81701EB1050C0F30F3083
:100A5000704700BFFEE7000008B50121082000F044
:100A60001DFBC020ADF8000003208DF8020014200B
:100A70008DF8030069460248FFF748FF08BD0000F3
:100A8000000C014010B5044690480460007800F066
:100A9000010020B104218E48FFF7CCFF03E00421C0
:100AA0008B48FFF7C9FF89480078C0F3400020B1A8
:100AB00008218748FFF7BEFF03E008218448FFF7BD
:100AC000BBFF82480078C0F3800020B1102180482D
:100AD000FFF7B0FF03E010217D48FFF7ADFF7B4833
:100AE0000078C0F3C00020B120217948FFF7A2FFB1
:100AF00003E020217648FFF79FFF74480078C0F399
:100B0000001020B140217248FFF794FF03E040211C
:100B10006F48FFF791FF6D480078C0F3401028B18F
:100B20004FF400416B48FFF785FF04E04FF40041AC
:100B30006848FFF781FF65480078C0F3801020B156
:100B400001216548FFF776FF03E001216248FFF7C6
:100B500073FF5E480078C0F3C01020B102215E48E8
:100B6000FFF768FF03E002215B48FFF765FF574886
:100B70000088C0F3002020B104215748FFF75AFF36
:100B800003E004215448FFF757FF50480088C0F3A2
:100B9000402020B108215048FFF74CFF03E0082116
:100BA0004D48FFF749FF49480088C0F3802020B135
:100BB00010214948FFF73EFF03E010214648FFF7A8
:100BC0003BFF42480088C0F3C02020B120214248AA
:100BD000FFF730FF03E020213F48FFF72DFF3B48A0
:100BE0000088C0F3003020B140213B48FFF722FFCE
:100BF00003E040213848FFF71FFF34480088C0F366
:100C0000403020B180213448FFF714FF03E08021F9
:100C10003148FFF711FF2D480088C0F3803028B11C
:100C20004FF480712C48FFF705FF04E04FF480710A
:100C30002948FFF701FF25480088C0F3C03028B1DC
:100C40004FF400712448FFF7F5FE04E04FF4007103
:100C50002148FFF7F1FE1D480068C0F3004028B1AD
:100C60004FF480611C48FFF7E5FE04E04FF480611B
:100C70001948FFF7E1FE15480068C0F3404020B175
:100C800001211648FFF7D6FE03E001211348FFF7C4
:100C9000D3FE0E480068C0F3804020B102210F4807
:100CA000FFF7C8FE03E002210C48FFF7C5FE074826
:100CB0000068C0F3C04020B104210848FFF7BAFE25
:100CC00003E004210548FFF7B7FE10BD0000002037
:100CD0000018014000100140001C014000080140C4
:100CE00010B5044696480460007800F0010020B179
:100CF00010219448FFF79EFE03E010219148FFF772
:100D00009BFE8F480078C0F3400020B140218D4801
:100D1000FFF790FE03E040218A48FFF78DFE8848E8
:100D20000078C0F3800020B180218648FFF782FE62
:100D300003E080218348FFF77FFE81480078C0F3FD
:100D4000C00020B110218048FFF774FE03E010219D
:100D50007D48FFF771FE7A480078C0F3001020B19B
:100D600020217948FFF766FE03E020217648FFF74F
:100D700063FE73480078C0F3401020B1012173482E
:100D8000FFF758FE03E001217048FFF755FE6C485D
:100D90000078C0F3801020B102216C48FFF74AFEB2
:100DA00003E002216948FFF747FE65480078C0F379
:100DB000C01028B14FF400616548FFF73BFE04E026
:100DC0004FF400616248FFF737FE5D480088C0F3CA
:100DD000002028B14FF480515D48FFF72BFE04E05E
:100DE0004FF480515A48FFF727FE55480088C0F35A
:100DF000402028B14FF400515548FFF71BFE04E096
:100E00004FF400515248FFF717FE4D480088C0F3D9
:100E1000802028B14FF480414D48FFF70BFE04E0DD
:100E20004FF480414A48FFF707FE45480088C0F369
:100E3000C02028B14FF400414548FFF7FBFD04E016
:100E40004FF400414248FFF7F7FD3D480088C0F3EA
:100E5000003020B101213F48FFF7ECFD03E0012104
:100E60003C48FFF7E9FD36480088C0F3403020B128
:100E700002213848FFF7DEFD03E002213548FFF785
:100E8000DBFD2F480088C0F3803020B1802132483C
:100E9000FFF7D0FD03E080212F48FFF7CDFD284864
:100EA0000088C0F3C03028B14FF480712A48FFF7A2
:100EB000C1FD04E04FF480712748FFF7BDFD2048D5
:100EC0000068C0F3004028B14FF400712248FFF7DA
:100ED000B1FD04E04FF400711F48FFF7ADFD184865
:100EE0000068C0F3404028B14FF480611A48FFF712
:100EF000A1FD04E04FF480611748FFF79DFD104805
:100F00000068C0F3804028B14FF400611248FFF739
:100F100091FD04E04FF400610F48FFF78DFD084894
:100F20000068C0F3C04028B14FF480510A48FFF771
:100F300081FD04E04FF480510748FFF77DFD10BDAF
:100F4000040000200008014000100140000C014096
:100F5000001C0140002001400018014000BFFEE7D6
:100F60007047000070B5002100230F22C47804B33D
:100F7000154C246804F4E064C4F5E064210AC1F16E
:100F80000403CA40447804FA03F1847814402143EE
:100F900009010E4C0678A155047804F01F050124C0
:100FA000AC4005786D11AD0005F1E025C5F80041B4
:100FB00009E0047804F01F050124AC40044D0678D4
:100FC000761145F8264070BD0CED00E000E400E02D
:100FD00080E100E002490143024A116070470000CD
:100FE0000000FA050CED00E0024A0A400243024B01
:100FF0001A60704780FFFF1F08ED00E010B5002168
:101000004FF00060FFF7F0FF4FF4A060FFF7E2FF42
:1010100010BD0000014908627047000000000E4248
:101020007047000001460020034A506820F4404009
:1010300008435060704700000010024029B1064A82
:1010400052690243044B5A6104E0034A52698243E5
:10105000014B5A61704700000010024029B1064A56
:10106000D2690243044BDA6104E0034AD269824345
:10107000014BDA61704700000010024029B1064AB6
:1010800012690243044B1A6104E0034A1269824365
:10109000014B1A61704700000010024029B1064A56
:1010A00092690243044B9A6104E0034A92698243C5
:1010B000014B9A61704700000010024029B1064AB6
:1010C000D2680243044BDA6004E0034AD2688243E8
:1010D000014BDA60704700000010024030B500217B
:1010E0000022002400232D4D6D6805F00C0121B174
:1010F000042905D0082923D105E0294D056022E007
:10110000274D05601FE0254D6D6805F47012234DD5
:101110006D6805F48034022505EB92421CB9214D1F
:10112000554305600BE01D4D6D6805F400351DB19C
:101130001C4D5543056002E0194D5543056002E022
:10114000174D056000BF00BF144D6D6805F0F0013C
:101150000909154D6B5C0568DD4045600F4D6D68F4
:1011600005F4E061090A104D6B5C4568DD4085605F
:101170000A4D6D6805F46051C90A0B4D6B5C4568FA
:10118000DD40C560054D6D6805F44041890B074D94
:101190006B5CC568B5FBF3F5056130BD001002401E
:1011A00000127A0000093D001C0000202C000020E5
:1011B000704710B500F002F810BD00000CB500201B
:1011C000019000903348006840F480303149086055
:1011D00000BF3048006800F4003000900198401CC7
:1011E0000190009818B90198B0F5A06FF1D1294885
:1011F000006800F4003010B10120009001E00020F0
:1012000000900098012843D12348006840F0100066
:10121000214908600846006820F00300086008467D
:10122000006840F0020008601A48406819494860A8
:101230000846406848600846406840F4806048605E
:101240000846406820F47C1048600846406840F436
:10125000E81048600846006840F08070086000BFF1
:101260000C48006800F000700028F9D00948406878
:1012700020F00300074948600846406840F002003B
:10128000486000BF0348406800F00C000828F9D10E
:101290000CBD00000010024000200240062818D2B9
:1012A000DFE800F01703070B0F130D490D4A11601B
:1012B00013E00D490B4A11600FE00C49094A116017
:1012C0000BE00B49074A116007E00A49054A116023
:1012D00003E00349034A116000BF00BF70470000EC
:1012E0000038014014000020004400400048004045
:1012F000004C00400050004070B586B0002401A8AA
:10130000FFF7ECFE64210298B0FBF1F4042000F03A
:1013100029F82146B1F1807F00D31DE021F07F4004
:10132000401E4FF0E022506150170F22002807DACC
:1013300013071E0E094B00F00F052D1F5E5503E02D
:1013400013071D0E064B1D5400BF00204FF0E02276
:1013500090610720106100BF06B070BD18ED00E07D
:1013600000E400E0042808D14FF0E021096941F0D1
:1013700004014FF0E022116107E04FF0E02109691C
:1013800021F004014FF0E0221161704710B50D48C3
:101390000068401C0B49086008460068322804D1E8
:1013A00020210948FFF746FB0AE006480068642848
:1013B00006D120210448FFF73FFB002001490860C7
:1013C00010BD0000440000200014014010B5134877
:1013D000006840F001001149086008464068104963
:1013E00008400E494860084600680E4908400B490D
:1013F00008600846006820F48020086008464068BD
:1014000020F4FE0048604FF41F008860FFF7D1FE13
:101410004FF000600449086010BD00000010024059
:101420000000FFF8FFFFF6FE08ED00E070470EB584
:1014300001210846FFF712FE4FF0804000F0FEF851
:1014400042F21070ADF804004720ADF80000002013
:10145000ADF80600ADF8020069464FF0804000F09C
:10146000FBF90121880700F0D6F801221146900708
:1014700000F0E9F90EBD000010B50121880700F069
:10148000D1F948B30121880700F0C8F81348006873
:10149000401C124908601248006864281CD9114891
:1014A0000078401C0F490870084600781E2813DD9C
:1014B000002008700C480068401E0B4908600B486B
:1014C000006848B900214FF0804000F0AAF80020E1
:1014D000054908600249086010BD000008000020AE
:1014E0000C000020100000203C00002038000020EC
:1014F00010B500F003F8FFF79AFF10BD08B54FF4E0
:10150000E060FFF767FD1C208DF8000000208DF8DB
:10151000010003208DF8020001208DF803006846C9
:10152000FFF720FD08BD00000EB501210220FFF7E6
:1015300095FD0E4800F082F842F21070ADF80400FC
:101540004720ADF800000020ADF80600ADF802001D
:101550006946064800F080F90121044800F05BF874
:1015600001221146014800F06EF90EBD0004004052
:1015700010B50121164800F055F940B30121144877
:1015800000F04CF813480068401C124908600846F7
:10159000006864281BD910480078401C0E49087068
:1015A000084600781E2812DD002008700B480068ED
:1015B000401E0A4908600846006840B900210448F6
:1015C00000F02FF80020054908600249086010BDAE
:1015D000000400400C000020110000203C0000200E
:1015E00010B500F003F8FFF79FFF10BD08B54FF4EA
:1015F000E060FFF7EFFC1D208DF8000000208DF863
:10160000010003208DF8020001208DF803006846D8
:10161000FFF7A8FC08BDCA4302827047CA43028292
:10162000704721B1028842F00102028004E0028882
:101630004FF6FE731A4002807047000010B5044652
:101640006848844208D10121C014FFF737FD00210A
:10165000E014FFF733FDC4E0B4F1804F08D101215D
:101660000846FFF70BFD00210120FFF707FDB8E05A
:101670005D48844208D101210220FFF7FFFC0021D0
:101680000220FFF7FBFCACE05848844208D101215E
:101690000420FFF7F3FC00210420FFF7EFFCA0E09B
:1016A0005348844208D101210820FFF7E7FC0021BC
:1016B0000820FFF7E3FC94E04E48844208D1012162
:1016C0001020FFF7DBFC00211020FFF7D7FC88E09B
:1016D0004948844208D101212020FFF7CFFC002196
:1016E0002020FFF7CBFC7CE04448844208D1012154
:1016F0004014FFF7E3FC00216014FFF7DFFC70E00B
:101700003F48844209D10121C804FFF7D7FC0021DA
:101710004FF40020FFF7D2FC63E03A48844209D13D
:1017200001210805FFF7CAFC00214FF48010FFF7E4
:10173000C5FC56E03448844209D101214805FFF731
:10174000BDFC00214FF40010FFF7B8FC49E02F4822
:10175000844208D101214020FFF790FC0021402065
:10176000FFF78CFC3DE02A48844208D1012180200B
:10177000FFF784FC00218020FFF780FC31E0254842
:10178000844208D101218015FFF778FC0021A015C3
:10179000FFF774FC25E02048844209D101210804A8
:1017A000FFF78CFC00214FF48030FFF787FC18E036
:1017B0001A48844209D101214804FFF77FFC002127
:1017C0004FF40030FFF77AFC0BE01548844208D153
:1017D00001218804FFF772FC00214FF48020FFF7FD
:1017E0006DFC10BD002C01400004004000080040CA
:1017F000000C004000100040001400400034014084
:10180000004C0140005001400054014000180040CD
:10181000001C004000200040004001400044014006
:101820000048014030B50246002000230024158AFC
:1018300005EA0103958905EA010413B10CB1012001
:1018400000E0002030BD1AB183890B43838102E0A0
:1018500083898B4383817047002202881D4B984205
:101860000ED01D4B98420BD0B0F1804F08D01B4BCF
:10187000984205D01A4B984202D01A4B984204D194
:101880004FF68F731A404B881A43174B984207D074
:10189000164B984204D04FF6FF431A40CB881A43A8
:1018A00002808B8883850B8803850A4B98420BD076
:1018B000094B984208D00E4B984205D00D4B9842E8
:1018C00002D00D4B984201D10B7A0386012383820B
:1018D00070470000002C014000340140000400402B
:1018E00000080040000C00400010004000140040C0
:1018F00000400140004401400048014010B54FF451
:1019000080612248FFF78DF8F8B94FF400711F4845
:10191000FFF787F860B980211D48FFF782F818B9F2
:1019200000201C4908702FE001201A4908702BE0A4
:1019300080211748FFF775F818B90220154908707B
:1019400022E00320134908701EE04FF400710F4895
:10195000FFF767F860B980210D48FFF762F818B902
:1019600004200C4908700FE005200A4908700BE0BC
:1019700080210748FFF755F818B906200549087077
:1019800002E007200349087010BD0000002001405C
:10199000001401404800002010B500F0D9F800F014
:1019A00055F800F0F1F800F015F800F0FFF840F2FB
:1019B0002551074800F010F9012240F22551044852
:1019C00000F065F90121024800F015F910BD000092
:1019D0000038014000B58DB001210846FFF72EFB0D
:1019E0000E208DF8300000208DF8310002208DF897
:1019F000320001208DF833000CA8FFF7B3FA10482D
:101A0000FEF700FE0F4801900F480290102003904F
:101A100000200590802006900020079008900990F3
:101A20004FF440500A9000200B9001A90448FEF7A3
:101A3000AEFE012202210248FEF7A0FE0DB000BD5D
:101A400044000240043801404F08002008B501213D
:101A50000420FFF723FB4FF40070ADF800001820BE
:101A60008DF8030003208DF8020069460748FEF751
:101A70004DFF4FF48060ADF8000004208DF80300A6
:101A800069460248FEF742FF08BD00000008014019
:101A900070B540F225512B4800F0CFF8012840D115
:101AA00040F22551274800F097F8264800F080F9C9
:101AB000C5B20A2D45D00D2D29D1234840780228E2
:101AC00019DD002407E02048C01C015D00F580609E
:101AD0000155601CC4B21C484078A042F3DC0021D0
:101AE0001A480155184840781749887000204870F6
:101AF0000120087025E00020134981F803040846FE
:101B000040788870002048700120087019E00E4865
:101B10004178C01C4554C01E4078401C0A4948709A
:101B20000FE04FF45871074800F07AF8012803D10C
:101B3000044800F03DF904E040F22771014800F04C
:101B40007CF870BD003801404C0000204F0400209C
:101B50001FB501218803FFF7A1FA4FF4164000904A
:101B60000020ADF80400ADF80600ADF80800ADF8AF
:101B70000C000C20ADF80A006946024800F0ACF8F1
:101B80001FBD00000038014008B525208DF8000079
:101B900000208DF8010002208DF8020001208DF850
:101BA00003006846FFF7DEF908BD00000021084A7F
:101BB000117091705170002007E0002205490A540D
:101BC000A1F580610A54411CC8B23C28F5DB70477E
:101BD0004C0000204F04002010B50022002340F6E6
:101BE0006A14A14200D100BF0A1201249440A3B29A
:101BF000DC43048010BD21B1828942F4005282810D
:101C000004E082894DF6FF731A40828170471AB151
:101C1000838A0B43838202E0838A8B4383827047EB
:101C200002460020B1F5007F00D100BF13880B40B1
:101C30000BB1012000E00020704770B5024600247F
:101C400000230025002040F66A16B14200D100BFF3
:101C5000C1F3421501F01F03012606FA03F3012D1B
:101C600002D19689334006E0022D02D1168A334014
:101C700001E0968A33400C12012606FA04F4168815
:101C8000344013B10CB1012000E0002070BDF0B56C
:101C90000346002400260025002040F66A17B942BA
:101CA00000D100BF1846C1F3421401F01F060127FE
:101CB00007FA06F5012C01D10C3004E0022C01D109
:101CC000103000E014301AB107682F43076002E0BB
:101CD0000768AF430760F0BD2DE9F04786B00546C1
:101CE0000E460024A24600BFA1460027B08900B1DD
:101CF00000BF2F462C8A4CF6FF700440F088044346
:101D00002C82AC894EF6F3100440B0883189084328
:101D1000718908430443AC81AC8A4FF6FF4004400C
:101D2000B0890443AC8201A8FFF7D8F91F48874265
:101D300002D1DDF810A001E0DDF80CA0A88900F4C4
:101D4000004040B10AEBCA0000EB0A1031684900BC
:101D5000B0FBF1F807E00AEBCA0000EB0A103168AB
:101D60008900B0FBF1F86420B8FBF0F00401200911
:101D7000642101FB1089A88900F4004040B13220A1
:101D800000EBC900B0FBF1F000F00700044308E0ED
:101D9000322000EB09106421B0FBF1F000F00F00DD
:101DA00004432C8106B0BDE8F087000000380140F4
:101DB00001468888C0F30800704700BFFEE70000B6
:101DC0000FB4054B10B503A9044A029800F018F8A7
:101DD00010BC5DF814FB0000551F0008180000201F
:101DE00002E008C8121F08C1002AFAD170477047E4
:101DF000002001E001C1121F002AFBD17047000042
:101E00002DE9FF4F89B09B460446002506E02528B2
:101E10000BD05A460B999047641C6D1C2078002803
:101E2000F5D10DB02846BDE8F08F0027B846012255
:101E3000474900E0074314F8013F203B02FA03F052
:101E40000842F7D120782E2819D114F8010F47F055
:101E500004072A280ED06FF02F022078A0F130015D
:101E600009290CD808EB880102EB410100EB0108BD
:101E7000641CF2E70A98641C50F8048B0A902078DE
:101E80000028CED0642808D0692806D075281ED036
:101E90005A460B9990476D1C58E00A994FF00A0971
:101EA00001C90A91002802DA40422D2102E03905D9
:101EB00004D52B218DF82010012103E0F90704D06F
:101EC0002021F7E78A4608AE0DE00021FAE70A99DB
:101ED0004FF00A0901C90A91F7E74946FEF744F9AC
:101EE000303106F8011D0028F7D1ADEB060000F1F6
:101EF0002009780701D44FF00108C84502DDA8EB9E
:101F0000090000E000208046002706E008A85A46A5
:101F1000C05D0B9990476D1C7F1C5745F6DB04E0B4
:101F200030205A460B9990476D1CB8F10001A8F17A
:101F30000108F5DC05E016F8010B5A460B999047AD
:101F40006D1CB9F10001A9F10109F4DC641C65E71D
:101F50000928010070B504460D4600BF80210A48DB
:101F60000068FFF75DFE0028F8D0E0B20649096876
:101F7000888000BF04480068008800F04000002806
:101F8000F8D0204670BD00001400002070B5054652
:101F900000240026414931F81500FEF74FFD0446A4
:101FA000002C02D9052C00D876E0052C03D90F2C83
:101FB00001D8012670E00F2C03D9142C01D8022679
:101FC0006AE0142C03D9192C01D8032664E0192CDB
:101FD00003D91E2C01D804265EE01E2C03D9232C25
:101FE00001D8052658E0232C03D9282C01D8062631
:101FF00052E0282C03D92D2C01D807264CE02D2C9B
:1020000003D9322C01D8082646E0322C03D9372CCC
:1020100001D8092640E0372C03D93C2C01D80A26E8
:102020003AE03C2C03D9462C01D80B2634E0462C50
:1020300003D9502C01D80C262EE0502C03D95A2C51
:1020400001D80D2628E05A2C03D9642C01D80E267D
:1020500022E0642C03D9782C01D80F261CE0782CC0
:1020600003D98C2C01D8102616E08C2C03D9A02C77
:1020700001D8112610E0A02C03D9B42C01D81226C7
:102080000AE0B42C03D9C82C01D8132604E0C82CCC
:1020900001D9142600E00026304670BD500C002007
:1020A000002500244FF6FF763746FEF723FA4FF45B
:1020B000FA70FEF78BFBFFF721FC5548017855A01D
:1020C000FFF77EFE01250DE0554951F82500FEF78A
:1020D000D9FC534951F82500FEF702FE6420FEF7B3
:1020E00075FB6D1C152DEFD30020FEF7CBFC0020F7
:1020F000FEF7F6FD01218807FFF793FA0121084654
:10210000FEF7ACFF01214748FFF78BFA01210220BF
:10211000FEF7A4FF7BE00120FFF738FF424908608B
:102120000220FFF733FF414908601E20FEF74EFBF7
:102130003D4806683D4807683B4800683C490968D7
:1021400088421AD93A48047809E03A4951F82400FB
:10215000FEF798FC0A20FEF739FB601CC4B2324837
:102160000068401C8442F0D32F4800683049086062
:1021700001218807FFF755FA14E0F4B20DE02D496C
:1021800051F82410264A2A4B1B6852F8232041EAB2
:102190000200FEF777FC601EC4B223480068401EB0
:1021A000A042ECD32148006823490968884219D924
:1021B0002148047810E01F4951F82400FEF790FDF3
:1021C0001A4800681C49086008460768012115483C
:1021D000FFF727FA601CC4B214480068401C844210
:1021E00015D2E8E7FCB20DE0124951F824100C4A70
:1021F000114B1B6852F8232041EA0200FEF770FDE4
:10220000601EC4B209480068401EA042ECD382E7B9
:10221000480000204944203D2025640D0A000000AC
:102220004823000800040040300000203400002053
:1022300038000020F42200083C0000203031323306
:1022400034353637383941424344454600000000B2
:102250000100000003000000070000000F00000064
:102260001F0000003F0000007F000000FF00000092
:10227000FF010000FF030000FF070000FF0F000048
:10228000FF1F0000FF3F0000FF7F0000FFFF000076
:10229000FFFF0100FFFF0300FFFF0700FFFF0F002C
:1022A0000000000001000000020000000400000027
:1022B00008000000100000002000000040000000A6
:1022C0008000000000010000000200000004000087
:1022D0000008000000100000002000000040000086
:1022E0000080000000000100000002000000040067
:1022F00000000800000000000000080000000C00C2
:1023000000000E0000000F0000800F0000C00F0052
:1023100000E00F0000F00F0000F80F0000FC0F00BD
:1023200000FE0F0000FF0F0080FF0F00C0FF0F0036
:10233000E0FF0F00F0FF0F00F8FF0F00FCFF0F00A1
:10234000FEFF0F00FFFF0F0000000000000008006C
:1023500000000400000002000000010000800000F6
:1023600000400000002000000010000000080000F5
:1023700000040000000200000001000080000000D6
:1023800040000000200000001000000008000000D5
:102390000400000002000000010000000100000035
:1023A000C0230008000000204C000000E01D0008D1
:1023B0000C2400084C00002014100000F01D000840
:1023C000000000000000000000000000000000000D
:1023D00000000000000000000000000000000000FD
:1023E00001020304010203040607080902040608A7
:1023F00000000000000000000000000000000000DD
:0C240000000000000000000000000000D0
:0400000508000131BD
:00000001FF
