:020000040800F2
:10000000381D002045010008671900081319000871
:10001000631900088D0B00085B2800080000000031
:10002000000000000000000000000000751B000838
:100030007D10000800000000251A0008891D000836
:100040005F0100085F0100085F0100085F01000810
:100050005F0100085F0100085F0100085F01000800
:100060005F0100085F0100085F0100085F010008F0
:100070005F0100085F010008910B00085F010008A4
:100080005F010008C10B00085F0100085F01000864
:100090005F0100085F0100085F010008D116000839
:1000A0005F0100082D1E00085F0100085F010008C5
:1000B000311E00085D1F00085F0100085F01000895
:1000C0005F0100085F0100085F0100085F01000890
:1000D0005F01000899220008FD2400085F01000864
:1000E0005F0100085F0100085F0100085F01000870
:1000F0005F0100085F0100085F0100085F01000860
:100100005F0100085F0100085F0100085F0100084F
:100110005F0100085F0100085F0100085F0100083F
:100120005F0100085F0100085F0100085F0100082F
:10013000DFF80CD000F062FB0048004705320008F1
:10014000381D00200648804706480047FEE7FEE7C6
:10015000FEE7FEE7FEE7FEE7FEE7FEE7FEE7FEE777
:10016000CD1D000831010008421C10F8011B0029B8
:10017000FBD1801A704780EA010210B502F00043FB
:10018000400022D04A001FD0010E01EB1261C0F3E3
:100190005600C2F3560240F4000042F40002A0FBF5
:1001A000022000047F39140400D0401C50EA1240A1
:1001B00001D44000491EC2B20C0604EBD010401C12
:1001C0004008802A02D003E0002010BD20F001008A
:1001D000002900DA0020184310BD2DE9FE4F8046AB
:1001E00081EA0300C00F0C46009021F0004123F08B
:1001F0000045B8EB0200A94105D240462146904691
:100200001C460B46024623F00040104347D0270D02
:10021000C7F30A00C3F30A510290401A0190402824
:100220006BDAC3F3130040F4801B0098924620B1B0
:100230000023D2EB030A63EB0B0B01985946C0F184
:100240004002504600F0E5F906460D465046594634
:10025000019A00F0FDF910EB08006141002487EAE3
:10026000115284EAE7731A4340D0009A62B3019AAC
:10027000012A4FEA075215DC001B61EB02014FF027
:10028000004202EA0752CDE90042001C41F580110C
:1002900032462B4600F034FA03B0BDE8F08F4046FA
:1002A0002146F9E7001B61EB0201001C41F58013B8
:1002B00000185B412018A2F5001747EB030140EA44
:1002C000D570B6196D4111E06D084FEA360645EA62
:1002D000C0754FEA0752001B61EB0201001C41F59B
:1002E000801149084FEA30000019514132462B462F
:1002F00003B0BDE8F04F00F0F4B9009801224000CF
:100300000023D0EB020263EBE073009821464FEA32
:10031000E074B8EB000061EB0401E9E783F000430F
:100320005BE781F0004158E72DE9FE4F81EA0304C5
:1003300004F0004421F0004100944FF0000B23F042
:10034000004350EA01045ED052EA03045BD0C3F3D9
:100350000A54C1F30A552C44A4F2F3340194A0FBCF
:100360000254C1F3130141F48011C3F3130343F4A6
:10037000801301FB024400FB034E840A970A44EAFF
:10038000815447EA8357A4FB076802958D0A05FB51
:1003900007854FEA932C04FB0C542705029D4FEA76
:1003A000065847EA1637B5EB08056EEB070C870EC3
:1003B000920E47EA811742EA8312A7FB0201B6EBCD
:1003C0000B0164EB00042B0D43EA0C335E1844EB85
:1003D0001C50DA465146E7FB0201C5F313044FEA0D
:1003E0000B3343EA14534FEA0432019C43EA0603F9
:1003F000A4F10C040294009CCDE900B400F080F953
:1004000003B0BDE8F08F00200146F9E72DE9F04D7B
:1004100081EA030404F0004B21F0004514464FF03C
:10042000000A23F0004150EA050220D054EA0102FC
:100430001DD0C5F30A570246C5F31303C1F31300D9
:10044000C1F30A5640F4801543F48013A7EB060865
:10045000101BD64608F2FD3873EB050002D308F1F5
:10046000010801E092185B41B8F1000F03DA0020A7
:100470000146BDE8F08D00204FF480110646844609
:100480000EE0171B73EB050705D3121B63EB050387
:1004900006434CEA010C49084FEA300092185B41D0
:1004A00050EA0107EDD152EA030012D082EA0400BB
:1004B00083EA0501084305D0101BAB4106D2012297
:1004C000002306E000224FF0004302E06FF001023B
:1004D00053101AEB06004CEB085110EB0A0041EBED
:1004E0000B01BDE8F04D00F0FCB896230022114648
:1004F00000F0C9B800F0004220F00040C10DC0F388
:10050000160040F400007F2901DA00207047962988
:1005100003DCC1F19601C84001E096398840002A09
:10052000F4D04042704700F0004230F000400AD062
:10053000C10D01F56071C0F3160042EA0151C20815
:1005400040071143704700200146704701F0004307
:1005500030B421F0004150EA010206D00A0DA2F5A4
:100560006072C1F31301002A02DC30BC0020704726
:10057000440F44EAC104C100E01830BC00EBC25093
:1005800000F078B830B50B46014600202022012447
:1005900009E021FA02F59D4205D303FA02F5491B51
:1005A00004FA02F52844151EA2F10102F1DC30BD67
:1005B0002DE9F05F0546002092469B468846064698
:1005C000814640241BE0284641464746224600F02B
:1005D0002FF853465A46C01A914110D31146184677
:1005E000224600F016F82D1A67EB01084F46224606
:1005F0000120002100F00DF817EB00094E41201EEC
:10060000A4F10104DFDC484631462A464346BDE8F2
:10061000F09F202A04DB203A00FA02F10020704704
:100620009140C2F1200320FA03F319439040704730
:10063000202A04DB203A21FA02F00021704721FA37
:1006400002F3D040C2F1200291400843194670479E
:10065000202A06DBCB17203A41FA02F043EAE07386
:1006600006E041FA02F3D040C2F120029140084373
:10067000194670470029A8BF7047401C490008BFB1
:1006800020F00100704710B4B0FA80FC00FA0CF0C2
:1006900050EA010404BF10BC704749B1CCF12004FA
:1006A00021FA04F411FA0CF118BF01212143084387
:1006B000A3EB0C01CB1D4FEA00614FEA102042BFB3
:1006C000002010BC704700EBC35010440029A4BFA9
:1006D00010BC7047401C490008BF20F0010010BC4E
:1006E000704710B5141E73F1000408DA401C41F184
:1006F000000192185B411A4301D120F0010010BDA6
:100700002DE9F04D92469B4611B1B1FA81F202E01B
:10071000B0FA80F220329046FFF77BFF04460F4686
:1007200040EA0A0041EA0B0153465A46084313D0F7
:10073000114653EA010019D0C8F140025046FFF7B4
:1007400077FF05460E46504659464246FFF761FF81
:10075000084305D0012004E020463946BDE8F08D6D
:100760000020054346EAE0762C4337430A986305A8
:10077000E40AA0EB08000022FD0A44EA47540A30CC
:1007800002D500200146E9E7010510196941DDE9BC
:10079000084500196941BDE8F04DA2E7C1F30A52CE
:1007A000C1F3130140F2FF3341F480119A4202DA9F
:1007B00000200146704740F233439A42A2F233428E
:1007C00002DC5242FFF734BFFFF723BF30B5041EEF
:1007D00071F1000404DB4FF00044404264EB01017E
:1007E000141E73F1000405DB1C464FF00043524217
:1007F00063EB0403994208BF904230BD064C074D9D
:1008000006E0E06840F0010394E8070098471034E0
:10081000AC42F6D3FFF790FCD0330008F033000869
:1008200010B500F005F800F025F800F005FA10BD4D
:1008300008B50121042001F023F90220ADF80000E1
:1008400000208DF8030003208DF80200694602485D
:1008500000F07EFF08BD00000008014021B1826861
:1008600042F00102826003E0826822F001028260AD
:100870007047000000B585B00121480201F000F981
:100880004FF4004001F0D0F80020009001208DF8D6
:1008900004008DF805004FF46020029000200390C2
:1008A00001208DF810006946154800F04BF8012032
:1008B00000F0E2F8052301221146114800F06AF821
:1008C00001210F4800F01EF801210D48FFF7C6FF77
:1008D0000B4800F0BBF800BF094800F028F80028DA
:1008E000FAD1074800F0C2F800BF054800F015F83B
:1008F0000028FAD10121024800F0ADF805B000BD92
:100900000024014021B1826842F48072826003E0D9
:10091000826822F4807282607047014600208A68F3
:1009200002F004020AB1012000E0002070470146F5
:1009300000208A6802F008020AB1012000E00020CD
:100940007047000030B502460020002350680F4C6D
:1009500020400D790C6844EA0524204350609068DB
:100960000B4C2040D1E902542C434D7944EA450414
:1009700020439060D06A20F470000C7C641EE4B2C6
:10098000234340EA0350D06230BD0000FFFEF0FF79
:10099000FDF7F1FFF0B504460D4600200021092DBA
:1009A00011DDE068A5F10A0606EB4607072606FA00
:1009B00007F18843A5F10A0606EB460603FA06F19D
:1009C0000843E0600CE0206905EB4507072606FABE
:1009D00007F1884305EB450603FA06F10843206159
:1009E000072A0FDA606B561E06EB86071F2606FAEB
:1009F00007F18843561E06EB860605FA06F1084302
:100A0000606322E00D2A0FDA206BD61F06EB860703
:100A10001F2606FA07F18843D61F06EB860605FA5D
:100A200006F10843206310E0E06AA2F10D0606EB30
:100A300086071F2606FA07F18843A2F10D0606EB8A
:100A4000860605FA06F10843E062F0BD816841F0D0
:100A500008018160704721B1826842F4A00282607F
:100A600003E0826822F4A00282607047816841F04E
:100A7000040181607047000030B10749096841F402
:100A80000001054A116005E00349096821F40001ED
:100A9000014A11607047000008240140014601F03E
:100AA0000F00091101F00F0101EB81025100421802
:100AB000D0B270470348008840F001000149088027
:100AC00070470000346C004010B501214FF0C05059
:100AD00000F0C6FF012000F09FFFFFF7EBFF0120B1
:100AE00000F022F8012000F005F8002000F016F8D0
:100AF00010BD0000014908607047000088860D4263
:100B000008B5014600200090034800900098084472
:100B100000900098008808BD006C00400149086002
:100B20007047000000860D420149086070470000D0
:100B300004860D4208B500220092044A0092009AF1
:100B400002440092009A116008BD0000006C004051
:100B500010B501F03BF900F053FF01F01FFB01F06D
:100B600057FC012001F07CF800F0B4FDFFF7ACFF6A
:100B7000FFF756FE0420FFF7C3FF0446641CA1B232
:100B80000420FFF7D7FF01F0B5F810BD00BFFEE766
:100B900010B54FF4005000F021F940B1002280213F
:100BA000054801F080FD0021044800F039F84FF4B9
:100BB000704000F027F810BD0038014044000240AA
:100BC00010B54FF0007000F009F978B100228021D3
:100BD000094801F068FD0021084800F021F80520CF
:100BE00000F04DFA0821064800F08FFE4FF07060CB
:100BF00000F008F810BD00000044004080000240F2
:100C00000014014000F0805111B10349086001E077
:100C1000024948607047000004040240000002409E
:100C200021B1026842F00102026004E002684FF65E
:100C3000FE731A400260704700B58BB0114800F097
:100C400027F81148009011480190002002900120DF
:100C500003900020049080200590400006908000C2
:100C60000790202008900002099000200A90694611
:100C7000044800F0D2F801210248FFF7D1FF0BB081
:100C800000BD0000080002404C2401409E180020D6
:100C900001684FF6FE721140016000210160416061
:100CA0008160C1604B49884208D14A490839496886
:100CB00041F00F01474A083A51608AE04549143132
:100CC000884208D143490839496841F0F001414A56
:100CD000083A51607DE03F492831884208D13D49BA
:100CE0000839496841F470613A4A083A516070E045
:100CF00038493C31884208D136490839496841F4BD
:100D00007041344A083A516063E0324950318842B8
:100D100008D130490839496841F470212D4A083A10
:100D2000516056E02B496431884208D1294908397D
:100D3000496841F47001274A083A516049E0254961
:100D40007831884208D123490839496841F07061F7
:100D5000204A083A51603CE01F49884206D1011FF1
:100D6000096841F00F01021F116032E01A49143185
:100D7000884208D11849091F096841F0F001164A54
:100D8000121F116025E014492831884208D1124908
:100D9000091F096841F470610F4A121F116018E0C1
:100DA0000D493C31884208D10B49091F096841F4BB
:100DB0007041094A121F11600BE007495031884207
:100DC00007D10549091F096841F47021024A121F21
:100DD00011607047080002400804024001460020EC
:100DE000002201F0805313B1054B1A6801E0054B56
:100DF0001A6802EA01030BB1012000E000207047ED
:100E000000040240000002401AB103680B43036073
:100E100002E003688B430360704710B5002202684C
:100E200047F6F0739A430C6A8B6823430C6923439B
:100E30004C6923438C692343CC6923434C6A234385
:100E40008C6A23431A430260CB6843600B6883605B
:100E50004B68C36010BD00002DE9F84F0024A14687
:100E6000A246A34600F0C0F800F060F8CC2000F0E5
:100E7000D3F8442000F0D0F800F0B6F800F056F8AF
:100E8000CC2000F0C9F8BE2000F0C6F800F02CF825
:100E900000F098F8814600F095F804464FF6FF7090
:100EA00000EA042444EA090A5046FFF71EFB0090BA
:100EB000FFF739FB07460022094BFFF735FA0546D5
:100EC000FFF744FB83465846FFF72DFB05462A46AD
:100ED0000B4604A001F0C4FC5846BDE8F88F0000A2
:100EE0000000B03F2534660008B54FF48050ADF8DF
:100EF000000048208DF803006946024800F028FCF5
:100F000008BD0000000C014008B54FF48050ADF85A
:100F1000000010208DF8030003208DF802006946C0
:100F2000014800F015FC08BD000C014010B500247C
:100F3000FFF7DAFF04E0601CC4B2012002F0F9F808
:100F40004FF480510F4800F0D7FC08B1642CF2DB5D
:100F5000642C01DB012010BD002404E0601CC4B23D
:100F6000012002F0E6F84FF48051064800F0C4FC7E
:100F700008B9F02CF2DBF02C01DB0120EBE70020BC
:100F8000E9E70000000C014010B5FFF7BDFF4FF48A
:100F900080510B4800F0B9FC0A2002F0CAF8FFF7B4
:100FA000A3FF4FF48051064800F0A6FC012801D1B0
:100FB000012400E000242D2002F0BBF8204610BDE3
:100FC000000C014070B50026002408E0FFF7DCFFAC
:100FD000054605FA04F03043C6B2601CC4B2082CC2
:100FE000F4DB304670BD000010B5FFF78DFF4FF405
:100FF0008051084800F089FC40F2EE2002F099F898
:101000004FF48051034800F082FC0F2002F091F869
:1010100010BD0000000C014070B50446FFF774FFDE
:10102000002526E004F00106641086B14FF48051DB
:10103000114800F06AFC082002F07BF84FF4805160
:101040000D4800F064FC3A2002F073F80FE04FF412
:101050008051094800F059FC462002F06AF84FF42C
:101060008051054800F053FC022002F062F8681C31
:10107000C5B2082DD6DB70BD000C014070474FF49F
:10108000FA5200FB02F100BF0A1EA1F10101FBD1DF
:1010900070470000044A00FB02F100BF0A1EA1F1E4
:1010A0000101FBD17047000000127A00C10000BFAF
:1010B0000A1EA1F10101FBD17047000070B5054681
:1010C00000240A2113A001F0BBFA0821284601F0F0
:1010D000B7FA00BF641C6420FFF7D1FF322C03D99C
:1010E0000FA001F0BDFB03E0134800780028F1D009
:1010F00000BF12A000F09AF918B911A001F0B0FBDE
:1011000006E015A001F0ACFB19491AA001F0A8FBFC
:1011100070BD000041542B43574D4F44453D0000E6
:101120004553505F4170704D6F64655F54696D65E4
:101130004F75740D0A0000009B0C00204F4B0000FF
:101140004553505F4170704D6F64655F5365745FC8
:101150004F4B0D0A000000004553505F4170704D29
:101160006F64655F5365745F4661696C0D0A0000CA
:10117000B81800204553505F5265765F436F6D6D20
:10118000616E643A0925730D0A0000002DE9F041F3
:1011900006460C4600250C212FA001F051FA3046DE
:1011A000FEF7E2FF07463946304601F049FA0121D1
:1011B0002DA001F045FA2046FEF7D6FF0746394636
:1011C000204601F03DFA062128A001F039FA12214B
:1011D00028A001F005F93046FEF7C6FF074639465C
:1011E000304601F0FDF801211FA001F0F9F820467A
:1011F000FEF7BAFF07463946204601F0F1F806210E
:101200001AA001F0EDF800BF6D1C41F28830854254
:1012100003D91DA001F024FB03E022480078002838
:10122000F2D000BF20A000F001F918B91FA001F012
:1012300017FB0EE023A000F0F9F818B926A001F082
:101240000FFB06E029A001F00BFB2D492DA001F0BA
:1012500007FBBDE8F081000041542B434950535433
:101260004152543D000000002C0000002C3132336C
:101270000D0A000044454255473A41542B4349501A
:1012800053544152543D00004553505F5365745FC1
:1012900043495053544152545F54696D654F7574BE
:1012A0000D0A00009B0C00204F4B00004553505F7F
:1012B0005365745F43495053544152545F4F4B0D33
:1012C0000A000000414C524541445920434F4E4EC4
:1012D000454354454400000043495053544152543F
:1012E00020434F4E4E4543540D0A00004553505F76
:1012F00043495053544152545F4661696C0D0A0092
:10130000B81800204553505F5265765F436F6D6D8E
:10131000616E643A0925730D0A0000002DE9F04161
:1013200006460C46002509211DA001F089F930462A
:10133000FEF71AFF07463946304601F081F90121D0
:101340001AA001F07DF92046FEF70EFF0746394648
:10135000204601F075F9022115A001F071F900BFD6
:101360006D1C6420FFF78BFE322D03D911A001F014
:1013700077FA03E0164800780028F1D000BF15A0E6
:1013800000F054F818B917A001F06AFA06E01AA0A4
:1013900001F066FA1E491FA001F062FABDE8F08173
:1013A00041542B43574A41503D0000002C0000009F
:1013B0000D0A00004553505F436F6E6E6563745FA6
:1013C00041505F54696D654F75740D0A000000004F
:1013D0009B0C00205749464920444953434F4E4EE9
:1013E000454354004553505F436F6E6E6563745FB1
:1013F00041505F4F4B0D0A004553505F436F6E6E77
:101400006563745F41505F4661696C0D0A000000BE
:10141000B81800204553505F5265765F436F6D6D7D
:10142000616E643A0925730D0A00000010B5044688
:101430000848007801280BD10020064908700649A9
:10144000204600F03BFC08B9002010BD0120FCE75D
:101450000120FAE79B0C0020B818002010B50024EA
:10146000082113A001F0ECF800BF641C6420FFF712
:1014700006FE322C03D911A001F0F2F903E0144862
:1014800000780028F1D000BF12A0FFF7CFFF18B9F5
:1014900011A001F0E5F906E013A001F0E1F9164909
:1014A00016A001F0DDF941F28830FFF7E8FD10BD2C
:1014B00041542B5253540D0A000000004553505F15
:1014C0005253545F54696D654F75740D0A000000E6
:1014D0009B0C00204F4B00004553505F5253545F0C
:1014E0004F4B0D0A000000004553505F5253545FAC
:1014F0004661696C0D0A0000B81800204553505F22
:101500005265765F436F6D6D616E643A0925730DA8
:101510000A00000070B5054600240B2115A001F05B
:101520008FF80221284601F08BF8022114A001F067
:1015300087F800BF641C6420FFF7A1FD322C03D99B
:1015400010A001F08DF903E0154800780028F1D0D3
:1015500000BF14A0FFF76AFF18B913A001F080F9CB
:1015600006E017A001F07CF91B491CA001F078F9F6
:1015700070BD000041542B43495053454E443D003B
:101580000D0A00004553505F5365745F4349505343
:10159000454E445F54696D654F75740D0A00000037
:1015A0009B0C00204F4B00004553505F5365745F08
:1015B00043495053454E445F4F4B0D0A0000000015
:1015C0004553505F5365745F43495053454E445FE4
:1015D0004661696C0D0A0000B81800204553505F41
:1015E0005265765F436F6D6D616E643A0925730DC8
:1015F0000A00000070B5054600240A2115A001F07C
:101600001FF80121284601F01BF8022114A001F067
:1016100017F800BF641C6420FFF731FD142C03D9B8
:1016200010A001F01DF903E0154800780028F1D062
:1016300000BF14A0FFF7FAFE18B913A001F010F9CB
:1016400006E016A001F00CF91A491BA001F008F9F8
:1016500070BD000041542B4349504D55583D00008A
:101660000D0A00004553505F5365745F4349504D68
:1016700055585F54696D654F75740D0A0000000080
:101680009B0C00204F4B00004553505F5365745F27
:101690004349504D55585F4F4B0D0A004553505F1D
:1016A0005365745F4349504D55585F4661696C0DF1
:1016B0000A000000B81800204553505F5265765F5D
:1016C000436F6D6D616E643A0925730D0A00000069
:1016D0007047000008B5012140F2FD1000F0D0F97C
:1016E0004FF40070ADF8000003208DF802001020C8
:1016F0008DF803006946144800F02AF84FF4807012
:10170000ADF8000048208DF8030069460E4800F04F
:101710001FF84FF48060ADF8000003208DF8020040
:1017200010208DF803006946084800F011F84FF4C6
:101730006040ADF8000048208DF80300694603487A
:1017400000F006F808BD000000080140000C014050
:101750002DE9F04102460025002600200023002448
:10176000002791F803C00CF00F0591F803C00CF0AE
:10177000100CBCF1000F03D091F802C04CEA050533
:1017800091F800C0BCF1000F31D0146800202BE0AC
:101790004FF0010C0CFA00F3B1F800C00CEA03069C
:1017A0009E4220D183004FF00F0C0CFA03F7BC438C
:1017B00005FA03FC4CEA040491F803C0BCF1280FBD
:1017C00006D14FF0010C0CFA00FCC2F814C00AE07C
:1017D00091F803C0BCF1480F05D14FF0010C0CFA91
:1017E00000FCC2F810C0401C0828D1D31460B1F826
:1017F00000C0BCF1FF0F34DD546800202EE000F182
:10180000080C4FF0010808FA0CF3B1F800C00CEA1C
:1018100003069E4221D183004FF00F0C0CFA03F710
:10182000BC4305FA03FC4CEA040491F803C0BCF184
:10183000280F05D100F1080C08FA0CF8C2F8148042
:1018400091F803C0BCF1480F07D100F1080C4FF02C
:10185000010808FA0CF8C2F81080401C0828CED302
:101860005460BDE8F0810000F0B50A460023002472
:101870000021002500F00046B6F1004F02D11D4EB8
:10188000F16901E01B4E7168C0F3034583B200F4B7
:101890004016B6F5401F08D121F07061154E7668EC
:1018A00026F07066134F7E6012E000F48016B6F5E5
:1018B000801F06D1032606FA05F4A14341F07061AA
:1018C00006E0460D360103FA06F6B14341F07061B9
:1018D00022B1460D360103FA06F6314300F0004608
:1018E000B6F1004F02D1034EF16101E0014E71608B
:1018F000F0BD0000000001400246002093680B404C
:101900000BB1012000E00020704741617047016188
:10191000704700BFFEE770B50446002500F0DCFB11
:10192000D02000F0ABFB00F007FC0520FFF7BEFB6A
:10193000204600F0A3FB00F0FFFB0520FFF7B6FBFD
:1019400000F0CAFBD12000F099FB00F0F5FB052068
:10195000FFF7ACFB00F066FB054600F0BDFB284638
:1019600070BD00BFFEE7704770B5002100230F2255
:10197000C47804B3154C246804F4E064C4F5E0644E
:10198000210AC1F10403CA40447804FA03F18478BF
:101990001440214309010E4C0678A155047804F047
:1019A0001F050124AC4005786D11AD0005F1E0255F
:1019B000C5F8004109E0047804F01F050124AC409B
:1019C000044D0678761145F8264070BD0CED00E018
:1019D00000E400E080E100E002490143024A1160B6
:1019E000704700000000FA050CED00E0024A0A40D2
:1019F0000243024B1A60704780FFFF1F08ED00E0B2
:101A000010B500214FF00060FFF7F0FF4FF4A06029
:101A1000FFF7E2FF10BD00000149086270470000B7
:101A200000000E427047000001460020034A506843
:101A300020F440400843506070470000001002400E
:101A400029B1064A52690243044B5A6104E0034A31
:101A500052698243014B5A617047000000100240F6
:101A600029B1064AD2690243044BDA6104E0034A11
:101A7000D2698243014BDA617047000000100240D6
:101A800029B1064A92690243044B9A6104E0034A71
:101A900092698243014B9A61704700000010024036
:101AA00030B500210022002400232D4D6D6805F083
:101AB0000C0121B1042905D0082923D105E0294DC5
:101AC000056022E0274D05601FE0254D6D6805F497
:101AD0007012234D6D6805F48034022505EB9242A7
:101AE0001CB9214D554305600BE01D4D6D6805F493
:101AF00000351DB11C4D5543056002E0194D55439D
:101B0000056002E0174D056000BF00BF144D6D6811
:101B100005F0F0010909154D6B5C0568DD40456075
:101B20000F4D6D6805F4E061090A104D6B5C456866
:101B3000DD4085600A4D6D6805F46051C90A0B4DA2
:101B40006B5C4568DD40C560054D6D6805F440413E
:101B5000890B074D6B5CC568B5FBF3F5056130BDBE
:101B60000010024000127A0000093D002100002010
:101B700031000020704710B500F002F810BD0000E1
:101B80000CB50020019000903348006840F480308C
:101B90003149086000BF3048006800F40030009010
:101BA0000198401C0190009818B90198B0F5A06FF9
:101BB000F1D12948006800F4003010B101200090F4
:101BC00001E0002000900098012843D123480068DC
:101BD00040F01000214908600846006820F003002A
:101BE00008600846006840F0020008601A48406833
:101BF000194948600846406848600846406840F413
:101C0000806048600846406820F47C1048600846C0
:101C1000406840F4E81048600846006840F0807072
:101C2000086000BF0C48006800F000700028F9D080
:101C30000948406820F003000749486008464068AA
:101C400040F00200486000BF0348406800F00C000C
:101C50000828F9D10CBD000000100240002002400D
:101C6000062818D2DFE800F01703070B0F130D4901
:101C70000D4A116013E00D490B4A11600FE00C4949
:101C8000094A11600BE00B49074A116007E00A4955
:101C9000054A116003E00349034A116000BF00BF19
:101CA0007047000000380140180000200044004048
:101CB00000480040004C00400050004030B5024653
:101CC0000023002000BF0FE00C785CB114780D7881
:101CD000AC4201D001200AE0521C491C5C1CE3B25A
:101CE000002001E0012002E01478002CECD100BFBC
:101CF00030BD000070B586B0002401A8FFF7D0FE0B
:101D000064210298B0FBF1F4042000F029F8214688
:101D1000B1F1807F00D31DE021F07F40401E4FF0E5
:101D2000E022506150170F22002807DA13071E0E19
:101D3000094B00F00F052D1F5E5503E013071D0E24
:101D4000064B1D5400BF00204FF0E0229061072099
:101D5000106100BF06B070BD18ED00E000E400E0C7
:101D6000042808D14FF0E021096941F004014FF047
:101D7000E022116107E04FF0E021096921F0040140
:101D80004FF0E0221161704710B50E480068401C0A
:101D90000C49086008460068322805D14FF40071EC
:101DA0000948FFF7B2FD0BE006480068642807D138
:101DB0004FF400710448FFF7AAFD002001490860B4
:101DC00010BD0000380000200008014010B5134885
:101DD000006840F001001149086008464068104959
:101DE00008400E494860084600680E4908400B4903
:101DF00008600846006820F48020086008464068B3
:101E000020F4FE0048604FF41F008860FFF7B3FE27
:101E10004FF000600449086010BD0000001002404F
:101E20000000FFF8FFFFF6FE08ED00E0704700003D
:101E300010B50121880700F0E4F8002870D00121D6
:101E4000880700F0DBF837480068401C3549086017
:101E500008460068322863D10020086001F08CF940
:101E6000314840680A21B0FBF1F0304908702E4833
:101E700040680A21B0FBF1F201FB12002C49087006
:101E80002948007A0A2190FBF1F02A490870264877
:101E9000007A0A2190FBF1F201FB1200264908703A
:101EA0002148407A0A2190FBF1F0244908701E482D
:101EB000407A0A2190FBF1F201FB120020490870E0
:101EC000194800780A2190FBF1F01E490870164865
:101ED00000780A2190FBF1F201FB12001A49087008
:101EE000114840780A2190FBF1F0184908700E481B
:101EF00040780A2190FBF1F201FB120014490870AE
:101F0000094880780A2190FBF1F0124908700648D0
:101F100080780A2190FBF1F201FB12000E49087053
:101F200010BD000000000020AC1800200A000020B6
:101F30000B0000200C0000200D0000200E000020EF
:101F40000F000020040000200500002006000020F3
:101F500007000020080000200900002070B50024C0
:101F600001211F4800F04DF8C8B301211C4800F0C2
:101F700045F81C480078401C1A490870084600784B
:101F800064282CDB00200870FEF766FF0646164921
:101F9000FEF7F1F80546FEF7ADFA04464FF47A7005
:101FA00094FBF0F011490870642094FBF0F00A21D2
:101FB00090FBF1F201FB12000D4908700A2094FB1E
:101FC000F0F00A2190FBF1F201FB120009490870C0
:101FD0000A2094FBF0F100FB11400749087070BD26
:101FE00000040040100000200000C8421100002042
:101FF000120000201300002014000020CA430282B7
:10200000704730B50246002000230024158A05EAF7
:102010000103958905EA010413B10CB1012000E028
:10202000002030BD10B5082400236002124908606A
:1020300016E05806030E4FF400600F49091D0860B2
:1020400000F0A4F84FF400600B49086000F09EF81F
:1020500009480838006800F4805008B143F00103D3
:10206000201EA4F10101CCB2E3D14FF4006002497B
:10207000091D0860184610BD1008014010B5034640
:1020800008241DE04FF400601249086000F07EF85B
:1020900003F0800028B14FF480500E49091F0860FA
:1020A00003E04FF480500B4908605806030E00F01F
:1020B0006DF84FF400600749091F086000F066F8EA
:1020C000201EA4F10101CCB2DCD14FF40060014923
:1020D000086010BD1408014000B54FF48050154948
:1020E00008604010086000F051F812480838006895
:1020F00008B9012000E0002000F4805008B1012060
:1021000000BD4FF480500B49091D086000F03EF8F7
:1021100008480838006800F4805008B10220EFE752
:102120004FF400600349091D086000F02FF80020FB
:10213000E6E700001008014000B54FF400601249C6
:10214000086000F023F84FF480500F49091F086021
:1021500000F01CF84FF400600B49091F086000F004
:1021600015F809480C38006800F4805028B14FF485
:10217000006005490860002000BD4FF4006002497E
:1021800008600120F8E70000140801400A2000BFA1
:10219000011EA0F10102D0B2FAD1704710B500F0D3
:1021A000DBF800F055F800F0F3F800F015F800F057
:1021B00001F940F22551074800F05AFA012240F295
:1021C0002551044800F0AFFA0121024800F05FFAFF
:1021D00010BD00000038014000B58DB00121084657
:1021E000FFF72EFC0E208DF8300000208DF8310016
:1021F00002208DF8320001208DF833000CA8FFF783
:10220000B3FB1048FEF744FD0F4801900F480290C1
:102210001020039000200590802006900020079059
:10222000089009904FF440500A9000200B9001A9AB
:102230000448FEF7F2FD012202210248FEF7E4FD08
:102240000DB000BD44000240043801409B0800204E
:1022500008B501210920FFF713FC01210420FFF735
:1022600003FB4020ADF8000018208DF80300032088
:102270008DF8020069460748FFF76AFA8020ADF83A
:10228000000004208DF8030069460248FFF760FA59
:1022900008BD0000000C014070B540F225512B48EC
:1022A00000F017FA012840D140F22551274800F0EC
:1022B000DFF9264800F0C8FAC5B20A2D45D00D2D29
:1022C00029D123484078022819DD002407E020485E
:1022D000C01C015D00F580600155601CC4B21C4843
:1022E0004078A042F3DC00211A4801551848407894
:1022F00017498870002048700120087025E00020F0
:10230000134981F80304084640788870002048701B
:102310000120087019E00E484178C01C4554C01EC9
:102320004078401C0A4948700FE04FF45871074844
:1023300000F0C2F9012803D1044800F085FA04E056
:1023400040F22771014800F0C4F970BD0038014027
:10235000980000209B0400201FB501218803FFF78F
:102360008FFB4FF4E13000900020ADF80400ADF891
:102370000600ADF80800ADF80C000C20ADF80A001E
:102380006946024800F0F4F91FBD00000038014022
:1023900008B525208DF8000000208DF801000220EE
:1023A0008DF8020001208DF803006846FFF7DCFA83
:1023B00008BD00000021084A117091705170002082
:1023C00007E0002205490A54A1F580610A54411C26
:1023D000C8B23C28F5DB7047980000209B04002021
:1023E00070B505460E46002400BF0BE0295D074886
:1023F00000F02FFA00BF8021044800F05DF90028AA
:10240000F9D0641CB442F1D370BD00000038014023
:1024100010B500F0E1F800F051F800F0F9F800F024
:1024200015F800F007F940F22551074800F020F9AF
:10243000012240F22551044800F075F901210248BB
:1024400000F025F910BD00000044004000B58DB03B
:1024500011208DF8300000208DF8310002208DF819
:10246000320001208DF833000CA8FFF77DFA1048E8
:10247000FEF70EFC0F4801900F48029010200390C9
:102480000020059080200690002007900890099079
:102490004FF440500A9000200B9001A90448FEF729
:1024A000BCFC012202210248FEF7AEFC0DB000BDCB
:1024B00080000240044400409E14002008B5012121
:1024C0002420FFF7DDFA0420ADF8000018208DF875
:1024D000030003208DF8020069460748FFF738F92A
:1024E0000820ADF8000004208DF80300694602487A
:1024F000FFF72EF908BD00000008014070B540F25A
:102500002551304800F0E5F801284AD140F2255124
:102510002C4800F0ADF82B4800F096F9C5B20A2D12
:102520004FD00D2D23D1002405E02748005D274919
:102530000855601CC4B226488078A042F5DC002013
:10254000224908552248807822490870002404E076
:1025500000211D480155601CC4B21D488078A0426E
:10256000F6DC00201A4988700120087029E018481C
:1025700081781548455416488078401C1449887065
:102580000846807864281CDB002404E000210E4803
:102590000155601CC4B2642CF8DB00200C49887023
:1025A0000FE04FF45871074800F086F8012803D176
:1025B000044800F049F904E040F22771014800F0B6
:1025C00088F870BD004400409E100020B81800201C
:1025D0009B0C0020200000201FB501214804FFF7BC
:1025E0003FFA4FF4E13000900020ADF80400ADF860
:1025F0000600ADF80800ADF80C000C20ADF80A009C
:102600006946024800F0B4F81FBD000000440040D5
:1026100008B526208DF8000000208DF8010002206A
:102620008DF8020001208DF803006846FFF79CF941
:1026300008BD000000200149887070479B0C0020F5
:1026400070B505460E46002400BF0BE0295D074823
:1026500000F0FFF800BF8021044800F02DF80028AA
:10266000F9D0641CB442F1D370BD000000440040B6
:1026700010B50022002340F66A14A14200D100BF29
:102680000A1201249440A3B2DC43048010BD21B19E
:10269000828942F40052828104E082894DF6FF7300
:1026A0001A40828170471AB1838A0B43838202E009
:1026B000838A8B438382704702460020B1F5007FF6
:1026C00000D100BF13880B400BB1012000E00020B7
:1026D000704770B50246002400230025002040F614
:1026E0006A16B14200D100BFC1F3421501F01F03C9
:1026F000012606FA03F3012D02D19689334006E044
:10270000022D02D1168A334001E0968A33400C1222
:10271000012606FA04F41688344013B10CB10120E6
:1027200000E0002070BDF0B503460024002600251F
:10273000002040F66A17B94200D100BF1846C1F325
:10274000421401F01F06012707FA06F5012C01D1FA
:102750000C3004E0022C01D1103000E014301AB12A
:1027600007682F43076002E00768AF430760F0BDCA
:102770002DE9F04786B005460E460024A24600BF6C
:10278000A1460027B08900B100BF2F462C8A4CF625
:10279000FF700440F08804432C82AC894EF6F3109D
:1027A0000440B08831890843718908430443AC81EF
:1027B000AC8A4FF6FF400440B0890443AC8201A8C4
:1027C000FFF76EF91F48874202D1DDF810A001E043
:1027D000DDF80CA0A88900F4004040B10AEBCA0063
:1027E00000EB0A1031684900B0FBF1F807E00AEB92
:1027F000CA0000EB0A1031688900B0FBF1F86420D0
:10280000B8FBF0F004012009642101FB1089A889BC
:1028100000F4004040B1322000EBC900B0FBF1F001
:1028200000F00700044308E0322000EB09106421A7
:10283000B0FBF1F000F00F0004432C8106B0BDE8BE
:10284000F08700000038014001468888C0F3080086
:102850007047C1F308028280704700BFFEE70000A6
:102860000FB4054B10B503A9044A029800F0CAF84A
:1028700010BC5DF814FB0000413100081C00002072
:1028800002E008C8121F08C1002AFAD17047704739
:10289000002001E001C1121F002AFBD17047000097
:1028A0002DE9FF5FDDE90220010DDDF838B00243BC
:1028B00018D044F61050A1F2FF3141430D140F9887
:1028C000012820D0A5EB0B00401C5FEA000A4FF066
:1028D0000004474EDFF81C91A046504616D5CAF1B9
:1028E000000728E00F98012443A2012808D0002106
:1028F00000980F9BC0E90021C0E90243BDE8FF9F9B
:102900006FEA0B01F4E7CBF10000DEE7074612E0C7
:10291000F80707D02246334640464946FDF704FDF6
:10292000804689462246334610461946FDF7FCFC90
:1029300004460E467F10002FEAD1DDE90201BAF10C
:10294000000F42464B4602DAFDF7EEFC01E0FDF7D0
:102950005DFD04460E460022284BFDF737FF03D8E5
:102960004FF0FF30014607E00022254B204631465C
:10297000FDF733FCFDF712FF102409E0002C0ADB01
:102980000A220023FDF714FE019B30321A55641E03
:1029900050EA0102F2D1641C019AC4F111031444FB
:1029A0000F9A012A03D0012208430DD10AE00843FF
:1029B00004D000204FF0110B0F9080E7A3EB0B0524
:1029C0006D1E0DE05B4504DD4FF0000205F10105D1
:1029D00004E003DA4FF00002A5F10105002AECD073
:1029E00000980F99C0E90231C0E9004586E7000070
:1029F000000024400000F03F300000000000F043E1
:102A00000000E03F2DE9FF4F95B09B468946064602
:102A100000250FE2252877D100242746F84A012116
:102A2000059400E0044316F8013F203B01FA03F04F
:102A30001042F7D130782A2811D06FF02F03307868
:102A4000A0F13002092A16D8059A44F0020402EBDC
:102A5000820203EB42021044761C0590EFE759F81E
:102A6000042B0592002A03DA504244F400540590E6
:102A700044F00204761C30782E2816D116F8010F87
:102A800044F004042A280DD06FF02F023078A0F112
:102A90003003092B09D807EB870302EB4303C71860
:102AA000761CF3E759F8047B761C30786C280FD03D
:102AB00006DC4C2817D068280DD06A2814D104E011
:102AC000742810D07A280FD10DE044F400140AE0E5
:102AD00044F4801401E044F440147278824202D13C
:102AE00004F58014761C761C307866280BD013DC35
:102AF000582877D009DC002875D04528F6D046281C
:102B0000F4D047281AD19DE118E0632835D0642815
:102B100079D0652812D195E1702873D008DC672838
:102B2000F1D069286FD06E280DD06F2806D1B5E09E
:102B300073282CD0752875D0782874D05A461799E8
:102B400090476D1C75E1C4F30250022809D0032898
:102B50000DD0D9F8001004280DD00D6009F104093A
:102B600067E1D9F80010EA17C1E90052F6E7D9F891
:102B700000100D80F2E70D70F0E719F8041B8DF8D6
:102B8000001000208DF80100EA46012003E059F80A
:102B900004AB4FF0FF3061074FF0000102D40DE0AD
:102BA00008F101018846B9420FDA8045F8DB1AF8CE
:102BB00008100029F4D108E008F10101884681429B
:102BC000FADB1AF808100029F6D105985B46A0EB4D
:102BD000080721463846179A00F094FA284400EB7B
:102BE000080507E04DE029E10DE01AF8010B5A460F
:102BF00017999047B8F10108F7D25B46214638464D
:102C0000179A13E142E00A220092C4F302524FF0F5
:102C1000000A022A08D059F804CB032A4FEAEC71C3
:102C20000AD00DE029E02AE009F1070121F00702AE
:102C3000F2E802C1914609E00FFA8CFC4FEAEC7110
:102C4000042A03D14FFA8CFC4FEAEC71002907DA11
:102C50000A460021DCF1000C61EB02012D2202E0AA
:102C6000220504D52B228DF80420012203E0E2077F
:102C700001D02022F7E7904659E00A2102E0102215
:102C80000DE010214FF0000A00910BE010224FF0F0
:102C9000000A44F004040827009203E008224FF0E1
:102CA000000A0092C4F30252022A05D059F804CB5C
:102CB0000021032A08D009E009F1070121F00702E9
:102CC000F2E802C1914605E01FFA8CFC042A01D10A
:102CD0000CF0FF0C4FF00008220728D5702806D012
:102CE000009B83F0100353EA0A0305D00EE0402254
:102CF0008DF80420012208E05CEA010206D03022AF
:102D00008DF804208DF8050002229046009B83F088
:102D1000080353EA0A030AD15CEA010201D16207FF
:102D200005D530228DF804204FF001087F1E582869
:102D300004D034A003900EA802900DE036A0F9E76D
:102D400053466046009AFDF733FC84460398825C44
:102D50000298401E029002705CEA0100F0D10298D5
:102D600006A9081A00F1200A600702D524F480346D
:102D700000E00127574502DDA7EB0A0000E0002034
:102D800000EB0A01009005984144401A0590E003C9
:102D900006D45B462146179A059800F0B3F905441E
:102DA000002706E001A85A46C05D179990476D1CA0
:102DB0007F1C4745F6DBE0030CD55B462146179A9E
:102DC000059800F09FF9054404E030205A46179911
:102DD00090476D1C0099481E00900029F5DC08E022
:102DE000029802995A460078491C02911799904717
:102DF0006D1CBAF10001AAF1010AF1DC65E10000E5
:102E000009280100303132333435363738396162C0
:102E10006364656600000000303132333435363784
:102E200038394142434445460000000000F058F95B
:102E30000544761C307800287FF4ECAD19B02846A4
:102E4000BDE8F08F620700D4062709F1070222F0DF
:102E5000070CFCE80223E14603F000485FEA080C97
:102E600002D00FF2702C0DE05FEA045C02D50FF285
:102E7000682C07E05FEAC47C02D00FF2602C01E00E
:102E8000AFF2700C4FF0FF3823F00043CDF850C084
:102E900065280CD006DC452809D046281DD04728D7
:102EA0003DD13DE0662818D067287ED138E000216A
:102EB000112F01DB112000E0781CCDE9000106A9EB
:102EC0000EA8FFF7EDFCDDE90F010E9A039100213A
:102ED000009207F1010A04914DE04FF00040009785
:102EE000CDE9011006A90EA8FFF7DAFCDDE90F0213
:102EF00003920E9B11990022DDF80CA0009304921E
:102F000011B9791C00EB010AB7EB0A0004D4C0F137
:102F1000FF3007F1010A0490AAEB0700019044E09A
:102F2000012F00DA01270021112F01DD112000E01F
:102F30003846CDE9000106A90EA8FFF7B1FCDDE98E
:102F40000F010E9A0391002104910092BA462107C5
:102F50000CD40399514500DA8A46BAF1010F05DD18
:102F6000009AAAF10101515C302908D0B84202DA76
:102F700010F1040F06DA0121CDE9011015E0AAF1E4
:102F80000101E9E7002805DC049901440491AAEB5A
:102F9000000102E0411C514500DD8A460499401AB7
:102FA000401C01904FF000400290200704D401988B
:102FB000504501DBCDF8048000208DF84F000298C9
:102FC0000DF14F07B0F1004F25D02B200E90029845
:102FD0004FF0020800280CDA404202902D200E909B
:102FE00007E00A210298FDF7CDFA3031029007F888
:102FF000011DB8F10001A8F10108F2DC02980028D7
:10300000EFD1791E0E980870307800F0200040F063
:10301000450007F8020D12A8C01B00F1070814981C
:10302000007800B1012000EB0A01019801EBE0718A
:1030300005984144401A401E0590E00306D45B46C3
:103040002146179A059800F05DF805441498007819
:1030500018B15A46179990476D1CE00324D55B467A
:103060002146179A059800F04DF805441CE0049895
:10307000002807DBDDE90301884203DD0098405C9E
:10308000179901E0179930205A469047049805F1A6
:103090000105401C04900198401E019004D12E208F
:1030A0005A46179990476D1CBAF10001AAF1010A1E
:1030B000DDDC05E017F8010B5A46179990476D1CA7
:1030C000B8F10001A8F10108F4DC5B462146179A2B
:1030D0000598ABE62D0000002B000000200000004A
:1030E0002DE9F041044600251E461746880404D405
:1030F00005E039462020B0476D1C641EF9D52846EE
:10310000BDE8F0812DE9F041044600251E469046B9
:10311000C80301D5302700E02027880404D505E046
:1031200041463846B0476D1C641EF9D52846BDE8B7
:10313000F081C10000BF0A1EA1F10101FBD170475F
:1031400070B504460D4600BF80210A480068FFF7AD
:10315000B3FA0028F8D0E0B206490968888000BFB9
:1031600004480068008800F040000028F8D020469D
:1031700070BD00001800002010B50620FEF7CBFB44
:103180001F4948600879FDF789FC1D494860052002
:10319000FEF7C1FB1A490872087AFDF77FFC18494F
:1031A00008720420FEF7B7FB15494872487AFDF70C
:1031B00075FC134948720220FEF7ADFB10490870F8
:1031C0000846007800F03F0008700878FDF766FCBC
:1031D0000B4908700120FEF79EFB094948704878AA
:1031E000FDF75CFC064948700020FEF794FB04499B
:1031F00088708878FDF752FC0149887010BD000086
:10320000AC18002000BF00BFFDF7A2FC4FF4FA701D
:10321000FDF735FF4FF4FA70FDF731FF4FF4FA7008
:10322000FDF72DFF4FF4FA70FDF729FF1FA0FFF700
:1032300017FB23A0FFF714FB29A0FFF711FB2EA01B
:10324000FDF73CFF0520FDF725FF2CA0FFF708FB4D
:10325000FEF704F90520FDF71DFF2DA0FFF700FB89
:1032600033A136A0FEF75AF80520FDF713FF37A06B
:10327000FFF7F6FA3BA0FEF7BDF90520FDF70AFFC0
:1032800039A0FFF7EDFA3EA142A0FDF77FFF052030
:10329000FDF700FF41A0FFF7E3FA47A0FEF73AF978
:1032A00046A0FFF7DDFA00BFFEE7000045535020BF
:1032B0005465737420537461720D0A0D0A00000086
:1032C00054657374696E672C506C65617374205714
:1032D000616974696E672E2E2E0D0A0D0A000000BA
:1032E00054657374696E67204170704D6F64652E0C
:1032F0002E2E0D0A00000000310000000D0A54655A
:103300007374696E67205273742E2E2E0D0A00009E
:103310000D0A54657374696E6720436F6E6E656342
:103320007420746F20576966692E2E2E0D0A0000D6
:10333000223838383839393939220000224D797A23
:10334000792D477565737422000000000D0A5465DD
:103350007374696E67204349504D55582E2E2E0DBB
:103360000A000000300000000D0A54657374696E95
:10337000672043495053544152542E2E2E0D0A00BB
:1033800022312E636E2E706F6F6C2E6E74702E6FE6
:103390007267220022554450220000000D0A546535
:1033A0007374696E67205365742043495053454ECA
:1033B000442E2E2E0D0A0000343800000D0A45530D
:1033C00050205465737420456E640D0A000000009F
:1033D000F03300080000002098000000802800085A
:1033E0008834000898000020A01C000090280008E5
:1033F00000000000000000000000000000000000CD
:1034000000000000000000000000000000000000BC
:103410000000000000010203040102030406070883
:1034200009020406080000000000000000EE48BA8F
:10343000DA5CD6F64AFEDE01080000000400000057
:103440001000000002000000000100000100000068
:10345000200000004000000080000000EF0000009D
:1034600049000000BB000000DB0000005D00000020
:10347000D7000000F70000004B000000FF00000034
:08348000DF000000A6000000BF
:0400000508000131BD
:00000001FF
