:020000040800F2
:1000000080100020450100087F0C0008B90B000893
:100010007B0C000809050008231C000800000000F4
:10002000000000000000000000000000CD0E0008ED
:10003000B3070008000000003D0D0008A9100008EB
:100040005F0100085F0100085F0100085F01000810
:100050005F0100085F0100085F0100085F01000800
:100060005F0100085F0100085F0100085F010008F0
:100070005F0100085F0100080D0500085F0100082E
:100080005F0100085F0100085F0100085F010008D0
:100090005F0100085F0100085F0100085D090008BA
:1000A0005F0100084D1100085F0100085F010008B2
:1000B000A11100084D1300085F0100085F0100084E
:1000C0005F0100085F0100085F0100085F01000890
:1000D0005F010008F91800085F0100085F010008CF
:1000E0005F0100085F0100085F0100085F01000870
:1000F0005F0100085F0100085F0100085F01000860
:100100005F0100085F0100085F0100085F0100084F
:100110005F0100085F0100085F0100085F0100083F
:100120005F0100085F0100085F0100085F0100082F
:10013000DFF80CD000F018F800480047A91E0008AE
:10014000801000200648804706480047FEE7FEE78B
:10015000FEE7FEE7FEE7FEE7FEE7FEE7FEE7FEE777
:10016000ED10000831010008064C074D06E0E0687C
:1001700040F0010394E8070098471034AC42F6D3EE
:10018000FFF7DAFFBC1E0008DC1E000810B500F007
:1001900005F800F025F800F0EBF910BD08B50121D5
:1001A000042000F009FE0220ADF8000000208DF8C8
:1001B000030003208DF802006946024800F000FCAD
:1001C00008BD00000008014021B1826842F0010230
:1001D000826003E0826822F00102826070470000C2
:1001E00000B585B00121480200F0E6FD4FF4004063
:1001F00000F0A6FD0020009001208DF804008DF88D
:1002000005004FF4602002900020039001208DF83B
:1002100010006946154800F04BF8012000F0E2F8A4
:10022000052301221146114800F06AF801210F4808
:1002300000F01EF801210D48FFF7C6FF0B4800F043
:10024000BBF800BF094800F028F80028FAD1074899
:1002500000F0C2F800BF054800F015F80028FAD1F8
:100260000121024800F0ADF805B000BD00240140B6
:1002700021B1826842F48072826003E0826822F4D5
:10028000807282607047014600208A6802F0040292
:100290000AB1012000E000207047014600208A6872
:1002A00002F008020AB1012000E0002070470000BF
:1002B00030B502460020002350680F4C20400D79D5
:1002C0000C6844EA05242043506090680B4C2040A1
:1002D000D1E902542C434D7944EA4504204390600F
:1002E000D06A20F470000C7C641EE4B2234340EA20
:1002F0000350D06230BD0000FFFEF0FFFDF7F1FFBC
:10030000F0B504460D4600200021092D11DDE068FE
:10031000A5F10A0606EB4607072606FA07F1884309
:10032000A5F10A0606EB460603FA06F10843E0606B
:100330000CE0206905EB4507072606FA07F188431C
:1003400005EB450603FA06F108432061072A0FDA98
:10035000606B561E06EB86071F2606FA07F18843D8
:10036000561E06EB860605FA06F10843606322E096
:100370000D2A0FDA206BD61F06EB86071F2606FA1A
:1003800007F18843D61F06EB860605FA06F10843F7
:10039000206310E0E06AA2F10D0606EB86071F2637
:1003A00006FA07F18843A2F10D0606EB860605FA68
:1003B00006F10843E062F0BD816841F00801816008
:1003C000704721B1826842F4A002826003E0826833
:1003D00022F4A00282607047816841F004018160CC
:1003E0007047000030B10749096841F40001054A2F
:1003F000116005E00349096821F40001014A116018
:100400007047000008240140014601F00F00091167
:1004100001F00F0101EB810251004218D0B2704788
:100420000348008840F0010001490880704700003F
:10043000346C004010B501214FF0C05000F09CFC1E
:10044000012000F075FCFFF7EBFF012000F022F81F
:10045000012000F005F8002000F016F810BD0000A3
:10046000014908607047000088860D4208B50146C2
:1004700000200090034800900098084400900098E5
:10048000008808BD006C004001490860704700000A
:1004900000860D42014908607047000004860D4245
:1004A00008B500220092044A0092009A0244009289
:1004B000009A116008BD0000006C004010B500F00B
:1004C00015FE00F029FC01F099F900F0FFFE00F0A4
:1004D0004BFF012000F070FD00F042FAFFF7AAFF89
:1004E00000F06CFB00F053F901F0B4FCFFF74EFE96
:1004F0000420FFF7BBFF0446641CA1B20420FFF7F1
:10050000CFFF00F087FD10BD00BFFEE710B54FF430
:10051000005000F0FFF840B100228021054801F0B2
:10052000AAFA0021044800F017F84FF4704000F0D8
:1005300005F810BD003801404400024000F0805131
:1005400011B10349086001E00249486070470000AA
:10055000040402400000024021B1026842F001029E
:10056000026004E002684FF6FE731A4002607047B2
:1005700000B58BB0114800F027F8114800901148E1
:100580000190002002900120039000200490802020
:1005900005904000069080000790202008900002FF
:1005A000099000200A906946044800F0D2F8012121
:1005B0000248FFF7D1FF0BB000BD00000800024069
:1005C0004C240140640C002001684FF6FE7211407B
:1005D00001600021016041608160C1604B49884237
:1005E00008D14A490839496841F00F01474A083A99
:1005F00051608AE045491431884208D1434908399D
:10060000496841F0F001414A083A51607DE03F49B4
:100610002831884208D13D490839496841F4706160
:100620003A4A083A516070E038493C31884208D172
:1006300036490839496841F47041344A083A5160F2
:1006400063E032495031884208D13049083949685D
:1006500041F470212D4A083A516056E02B4964312B
:10066000884208D129490839496841F47001274A6C
:10067000083A516049E025497831884208D1234938
:100680000839496841F07061204A083A51603CE0FD
:100690001F49884206D1011F096841F00F01021F5E
:1006A000116032E01A491431884208D11849091FF3
:1006B000096841F0F001164A121F116025E0144943
:1006C0002831884208D11249091F096841F4706134
:1006D0000F4A121F116018E00D493C31884208D1C1
:1006E0000B49091F096841F47041094A121F116042
:1006F0000BE007495031884207D10549091F0968B5
:1007000041F47021024A121F116070470800024034
:100710000804024001460020002201F0805313B17A
:10072000054B1A6801E0054B1A6802EA01030BB198
:10073000012000E000207047000402400000024059
:100740001AB103680B43036002E003688B43036044
:10075000704710B50022026847F6F0739A430C6A9E
:100760008B6823430C6923434C6923438C692343DF
:10077000CC6923434C6A23438C6A23431A430260A7
:10078000CB6843600B6883604B68C36010BD10B5D5
:1007900000F014FA00210E2000F04CFA022000F0C4
:1007A00009F800210F2000F045FA022000F002F8BD
:1007B00010BD70474FF4FA5200FB02F100BF0A1E51
:1007C000A1F10101FBD17047C10000BF0A1EA1F1D8
:1007D0000101FBD17047000010B5002400BF3BE0D1
:1007E000504A514B1B78D15C504A106801F0A6FA70
:1007F0004C4A4F4B1B78D15C4C4A506801F09EFA32
:100800004A498868082101F099FA464A494B1B7801
:10081000D15C464AD06801F091FA424A464B1B78B7
:10082000D15C424A106901F089FA404948690821BF
:1008300001F084FA3B4A414B1B78D15C3B4A9069FA
:1008400001F07CFA374A3E4B1B78D15C374AD069BD
:1008500001F074FA601C84B2642CC1DB002407E050
:10086000324951F82400002101F068FA601C84B27A
:10087000082CF5DBC820FFF79DFF00243EE0294A45
:10088000304B1B78D15C294A106801F057FA254A91
:100890002D4B1B78D15C254A506801F04FFA234953
:1008A0008868082101F04AFA1E4A284B1B78D15C5F
:1008B0001E4AD06801F042FA1A4A254B1B78D15CD7
:1008C0001A4A106901F03AFA18494869082101F0FA
:1008D00035FA144A1F4B1B78D15C144A906901F019
:1008E0002DFA104A1C4B1B78D15C104AD06901F0DC
:1008F00025FA0520FFF768FF601C84B2B4F5C87FB5
:10090000BDDB002407E0094951F82400002101F073
:1009100015FA601C84B2082CF5DBC820FFF74AFFEB
:1009200010BD0000310000200A0000203C00002023
:100930000B0000200C0000200D0000200E00002005
:100940000F00002004000020050000200600002009
:100950000700002008000020090000207047000068
:1009600008B5012140F2FD1000F026FA4FF40070A6
:10097000ADF8000003208DF8020010208DF8030070
:1009800069460D4800F01CF84FF48070ADF8000087
:1009900048208DF803006946074800F011F84FF42D
:1009A0006040ADF8000048208DF803006946034818
:1009B00000F006F808BD000000080140000C0140EE
:1009C0002DE9F041024600250026002000230024E6
:1009D000002791F803C00CF00F0591F803C00CF04C
:1009E000100CBCF1000F03D091F802C04CEA0505D1
:1009F00091F800C0BCF1000F31D0146800202BE04A
:100A00004FF0010C0CFA00F3B1F800C00CEA030639
:100A10009E4220D183004FF00F0C0CFA03F7BC4329
:100A200005FA03FC4CEA040491F803C0BCF1280F5A
:100A300006D14FF0010C0CFA00FCC2F814C00AE019
:100A400091F803C0BCF1480F05D14FF0010C0CFA2E
:100A500000FCC2F810C0401C0828D1D31460B1F8C3
:100A600000C0BCF1FF0F34DD546800202EE000F11F
:100A7000080C4FF0010808FA0CF3B1F800C00CEABA
:100A800003069E4221D183004FF00F0C0CFA03F7AE
:100A9000BC4305FA03FC4CEA040491F803C0BCF122
:100AA000280F05D100F1080C08FA0CF8C2F81480E0
:100AB00091F803C0BCF1480F07D100F1080C4FF0CA
:100AC000010808FA0CF8C2F81080401C0828CED3A0
:100AD0005460BDE8F0810000F0B50A460023002410
:100AE0000021002500F00046B6F1004F02D11D4E56
:100AF000F16901E01B4E7168C0F3034583B200F455
:100B00004016B6F5401F08D121F07061154E766889
:100B100026F07066134F7E6012E000F48016B6F582
:100B2000801F06D1032606FA05F4A14341F0706147
:100B300006E0460D360103FA06F6B14341F0706156
:100B400022B1460D360103FA06F6314300F00046A5
:100B5000B6F1004F02D1034EF16101E0014E716028
:100B6000F0BD000000000140416170470161704725
:100B700008B501210C2000F01FF9E020ADF80000BD
:100B800003208DF8020010208DF803006946084804
:100B9000FFF716FF0120ADF8000003208DF80200DA
:100BA00010208DF8030069460248FFF709FF08BDD1
:100BB00000080140000C014000BFFEE708B501211C
:100BC000042000F0F9F84FF4C050ADF80000032005
:100BD0008DF8020014208DF8030069460148FFF7E4
:100BE000EFFE08BD0008014070B50446002500F086
:100BF000A3FDD02000F072FD00F0CEFD0520FFF730
:100C0000E3FD204600F06AFD00F0C6FD0520FFF779
:100C1000DBFD00F091FDD12000F060FD00F0BCFD97
:100C20000520FFF7D1FD00F02DFD054600F084FD05
:100C3000284670BD70B505460C4600F07DFD0520C8
:100C4000FFF7C2FDD02000F049FD00F0A5FD052012
:100C5000FFF7BAFD284600F041FD00F09DFD05209C
:100C6000FFF7B2FD204600F039FD00F095FD0520AC
:100C7000FFF7AAFD00F060FD70BD00BFFEE7704702
:100C800070B5002100230F22C47804B3154C2468EA
:100C900004F4E064C4F5E064210AC1F10403CA402D
:100CA000447804FA03F184781440214309010E4C7E
:100CB0000678A155047804F01F050124AC4005789E
:100CC0006D11AD0005F1E025C5F8004109E004789B
:100CD00004F01F050124AC40044D0678761145F858
:100CE000264070BD0CED00E000E400E080E100E093
:100CF00002490143024A1160704700000000FA05F2
:100D00000CED00E0024A0A400243024B1A607047B1
:100D100080FFFF1F08ED00E010B500214FF00060DC
:100D2000FFF7F0FF4FF4A060FFF7E2FF10BD0000F7
:100D3000014908627047000000000E427047000041
:100D400001460020034A506820F4404008435060A8
:100D5000704700000010024029B1064A5269024360
:100D6000044B5A6104E0034A52698243014B5A61C1
:100D7000704700000010024029B1064AD2690243C0
:100D8000044BDA6104E0034AD2698243014BDA6121
:100D9000704700000010024029B1064A1269024360
:100DA000044B1A6104E0034A12698243014B1A6141
:100DB000704700000010024029B1064A92690243C0
:100DC000044B9A6104E0034A92698243014B9A61A1
:100DD000704700000010024029B1064AD268024361
:100DE000044BDA6004E0034AD2688243014BDA60C4
:100DF000704700000010024030B50021002200249E
:100E000000232D4D6D6805F00C0121B1042905D09A
:100E1000082923D105E0294D056022E0274D056012
:100E20001FE0254D6D6805F47012234D6D6805F4C3
:100E30008034022505EB92421CB9214D55430560D3
:100E40000BE01D4D6D6805F400351DB11C4D55437B
:100E5000056002E0194D5543056002E0174D05603D
:100E600000BF00BF144D6D6805F0F0010909154D74
:100E70006B5C0568DD4045600F4D6D6805F4E06111
:100E8000090A104D6B5C4568DD4085600A4D6D6850
:100E900005F46051C90A0B4D6B5C4568DD40C560C7
:100EA000054D6D6805F44041890B074D6B5CC568C5
:100EB000B5FBF3F5056130BD0010024000127A0069
:100EC00000093D001800002028000020704710B5E0
:100ED00000F002F810BD00000CB500200190009059
:100EE0003348006840F480303149086000BF304822
:100EF000006800F4003000900198401C01900098B8
:100F000018B90198B0F5A06FF1D12948006800F434
:100F1000003010B10120009001E000200090009806
:100F2000012843D12348006840F01000214908609F
:100F30000846006820F0030008600846006840F09A
:100F4000020008601A48406819494860084640682D
:100F500048600846406840F4806048600846406841
:100F600020F47C1048600846406840F4E81048606F
:100F70000846006840F08070086000BF0C480068B8
:100F800000F000700028F9D00948406820F0030004
:100F9000074948600846406840F00200486000BFCA
:100FA0000348406800F00C000828F9D10CBD00008F
:100FB0000010024000200240062818D2DFE800F0AE
:100FC0001703070B0F130D490D4A116013E00D496C
:100FD0000B4A11600FE00C49094A11600BE00B4904
:100FE000074A116007E00A49054A116003E0034916
:100FF000034A116000BF00BF704700000038014085
:10100000100000200044004000480040004C004018
:101010000050004070B586B0002401A8FFF7ECFE38
:1010200064210298B0FBF1F4042000F029F8214675
:10103000B1F1807F00D31DE021F07F40401E4FF0D2
:10104000E022506150170F22002807DA13071E0E06
:10105000094B00F00F052D1F5E5503E013071D0E11
:10106000064B1D5400BF00204FF0E0229061072086
:10107000106100BF06B070BD18ED00E000E400E0B4
:10108000042808D14FF0E021096941F004014FF034
:10109000E022116107E04FF0E021096921F004012D
:1010A0004FF0E0221161704710B50E480068401CF7
:1010B0000C49086008460068322805D14FF40071D9
:1010C0000948FFF751FD0BE006480068642807D186
:1010D0004FF400710448FFF749FD00200149086002
:1010E00010BD00002C0000200008014010B513487E
:1010F000006840F001001149086008464068104946
:1011000008400E494860084600680E4908400B49EF
:1011100008600846006820F480200860084640689F
:1011200020F4FE0048604FF41F008860FFF7CFFEF8
:101130004FF000600449086010BD0000001002403C
:101140000000FFF8FFFFF6FE08ED00E070470EB567
:1011500001210846FFF710FE4FF0804000F032F901
:1011600042F21070ADF804004720ADF800000020F6
:10117000ADF80600ADF8020069464FF0804000F07F
:101180002FFA0121880700F00AF901221146900781
:1011900000F01DFA0121880700F007F90EBD0000DC
:1011A00010B50121880700F001FA002870D0012154
:1011B000880700F0F7F837480068401C3549086098
:1011C00008460068042863D10020086000F070FD24
:1011D000314840680A21B0FBF1F0304908702E48D0
:1011E00040680A21B0FBF1F201FB12002C490870A3
:1011F0002948007A0A2190FBF1F02A490870264814
:10120000007A0A2190FBF1F201FB120026490870D6
:101210002148407A0A2190FBF1F0244908701E48C9
:10122000407A0A2190FBF1F201FB1200204908707C
:10123000194800780A2190FBF1F01E490870164801
:1012400000780A2190FBF1F201FB12001A490870A4
:10125000114840780A2190FBF1F0184908700E48B7
:1012600040780A2190FBF1F201FB1200144908704A
:10127000094880780A2190FBF1F01249087006486D
:1012800080780A2190FBF1F201FB12000E490870F0
:1012900010BD000000000020700C00200A0000209B
:1012A0000B0000200C0000200D0000200E0000208C
:1012B0000F00002004000020050000200600002090
:1012C00007000020080000200900002010B500F0F1
:1012D00003F8FFF73CFF10BD08B54FF4E060FFF7DF
:1012E00007FD1C208DF8000000208DF80100032070
:1012F0008DF8020001208DF803006846FFF7C0FC5E
:1013000008BD00000EB501210220FFF735FD0E4893
:1013100000F058F842F21070ADF804004720ADF824
:1013200000000020ADF80600ADF80200694606484E
:1013300000F056F90121044800F031F8012211466D
:10134000014800F044F90EBD0004004010B5012131
:10135000044800F02BF918B10121024800F022F8EE
:1013600010BD00000004004010B500F003F8FFF7C6
:10137000C9FF10BD08B54FF4E060FFF7B9FC1D20B0
:101380008DF8000000208DF8010003208DF8020088
:1013900001208DF803006846FFF772FC08BDCA43C0
:1013A00002827047CA430282704721B1028842F02C
:1013B0000102028004E002884FF6FE731A400280A8
:1013C0007047000010B504466848844208D10121E6
:1013D000C014FFF701FD0021E014FFF7FDFCC4E09D
:1013E000B4F1804F08D101210846FFF7D5FC002158
:1013F0000120FFF7D1FCB8E05D48844208D101210B
:101400000220FFF7C9FC00210220FFF7C5FCACE079
:101410005848844208D101210420FFF7BDFC002177
:101420000420FFF7B9FCA0E05348844208D1012111
:101430000820FFF7B1FC00210820FFF7ADFC94E085
:101440004E48844208D101211020FFF7A5FC00215D
:101450001020FFF7A1FC88E04948844208D101210F
:101460002020FFF799FC00212020FFF795FC7CE06D
:101470004448844208D101214014FFF7ADFC00210B
:101480006014FFF7A9FC70E03F48844209D10121B4
:10149000C804FFF7A1FC00214FF40020FFF79CFCDB
:1014A00063E03A48844209D101210805FFF794FC22
:1014B00000214FF48010FFF78FFC56E0344884423F
:1014C00009D101214805FFF787FC00214FF40010E6
:1014D000FFF782FC49E02F48844208D101214020D7
:1014E000FFF75AFC00214020FFF756FC3DE02A4858
:1014F000844208D101218020FFF74EFC002180208A
:10150000FFF74AFC31E02548844208D101218015CB
:10151000FFF742FC0021A015FFF73EFC25E0204824
:10152000844209D101210804FFF756FC00214FF441
:101530008030FFF751FC18E01A48844209D101219C
:101540004804FFF749FC00214FF40030FFF744FC4A
:101550000BE01548844208D101218804FFF73CFCC8
:1015600000214FF48020FFF737FC10BD002C014014
:101570000004004000080040000C00400010004043
:101580000014004000340140004C01400050014074
:101590000054014000180040001C004000200040A2
:1015A00000400140004401400048014030B502467F
:1015B000002000230024158A05EA0103958905EA25
:1015C000010413B10CB1012000E0002030BD1AB1BC
:1015D00083890B43838102E083898B438381704736
:1015E000002202881D4B98420ED01D4B98420BD012
:1015F000B0F1804F08D01B4B984205D01A4B98424F
:1016000002D01A4B984204D14FF68F731A404B8880
:101610001A43174B984207D0164B984204D04FF606
:10162000FF431A40CB881A4302808B8883850B883E
:1016300003850A4B98420BD0094B984208D00E4BB9
:10164000984205D00D4B984202D00D4B984201D1E3
:101650000B7A03860123838270470000002C01402F
:10166000003401400004004000080040000C00402D
:1016700000100040001400400040014000440140C0
:101680000048014010B50824002360021249086098
:1016900016E05806030E4FF400600F49091D08605C
:1016A00000F0A4F84FF400600B49086000F09EF8C9
:1016B00009480838006800F4805008B143F001037D
:1016C000201EA4F10101CCB2E3D14FF40060024925
:1016D000091D0860184610BD1008014010B50346EA
:1016E00008241DE04FF400601249086000F07EF805
:1016F00003F0800028B14FF480500E49091F0860A4
:1017000003E04FF480500B4908605806030E00F0C8
:101710006DF84FF400600749091F086000F066F893
:10172000201EA4F10101CCB2DCD14FF400600149CC
:10173000086010BD1408014000B54FF480501549F1
:1017400008604010086000F051F81248083800683E
:1017500008B9012000E0002000F4805008B1012009
:1017600000BD4FF480500B49091D086000F03EF8A1
:1017700008480838006800F4805008B10220EFE7FC
:101780004FF400600349091D086000F02FF80020A5
:10179000E6E700001008014000B54FF40060124970
:1017A000086000F023F84FF480500F49091F0860CB
:1017B00000F01CF84FF400600B49091F086000F0AE
:1017C00015F809480C38006800F4805028B14FF42F
:1017D000006005490860002000BD4FF40060024928
:1017E00008600120F8E70000140801400A2000BF4B
:1017F000011EA0F10102D0B2FAD1704710B500F07D
:10180000DBF800F055F800F0F3F800F015F800F000
:1018100001F940F22551074800F012F9012240F287
:101820002551044800F067F90121024800F017F93A
:1018300010BD00000038014000B58DB00121084600
:10184000FFF78AFA0E208DF8300000208DF8310065
:1018500002208DF8320001208DF833000CA8FFF72C
:101860000FFA1048FEF7B0FE0F4801900F480290A3
:101870001020039000200590802006900020079003
:10188000089009904FF440500A9000200B9001A955
:101890000448FEF75EFF012202210248FEF750FFD6
:1018A0000DB000BD44000240043801406308002030
:1018B00008B501210920FFF77FFA01210420FFF775
:1018C0000BF94020ADF8000018208DF8030003202C
:1018D0008DF8020069460748FFF772F88020ADF8DE
:1018E000000004208DF8030069460248FFF768F8FD
:1018F00008BD0000000C014070B540F225512B4896
:1019000000F0CFF8012840D140F22551274800F0DF
:1019100097F8264800F080F9C5B20A2D45D00D2D64
:1019200029D123484078022819DD002407E0204807
:10193000C01C015D00F580600155601CC4B21C48EC
:101940004078A042F3DC00211A480155184840783D
:1019500017498870002048700120087025E0002099
:10196000134981F8030408464078887000204870C5
:101970000120087019E00E484178C01C4554C01E73
:101980004078401C0A4948700FE04FF458710748EE
:1019900000F07AF8012803D1044800F03DF904E092
:1019A00040F22771014800F07CF870BD003801401A
:1019B00060000020630400201FB501218803FFF7A9
:1019C000FBF94FF4E13000900020ADF80400ADF8D1
:1019D0000600ADF80800ADF80C000C20ADF80A00C8
:1019E0006946024800F0ACF81FBD00000038014015
:1019F00008B525208DF8000000208DF80100022098
:101A00008DF8020001208DF803006846FFF738F9D1
:101A100008BD00000021084A11709170517000202B
:101A200007E0002205490A54A1F580610A54411CCF
:101A3000C8B23C28F5DB704760000020630400203A
:101A400010B50022002340F66A14A14200D100BF65
:101A50000A1201249440A3B2DC43048010BD21B1DA
:101A6000828942F40052828104E082894DF6FF733C
:101A70001A40828170471AB1838A0B43838202E045
:101A8000838A8B438382704702460020B1F5007F32
:101A900000D100BF13880B400BB1012000E00020F3
:101AA000704770B50246002400230025002040F650
:101AB0006A16B14200D100BFC1F3421501F01F0305
:101AC000012606FA03F3012D02D19689334006E080
:101AD000022D02D1168A334001E0968A33400C125F
:101AE000012606FA04F41688344013B10CB1012023
:101AF00000E0002070BDF0B503460024002600255C
:101B0000002040F66A17B94200D100BF1846C1F361
:101B1000421401F01F06012707FA06F5012C01D136
:101B20000C3004E0022C01D1103000E014301AB166
:101B300007682F43076002E00768AF430760F0BD06
:101B40002DE9F04786B005460E460024A24600BFA8
:101B5000A1460027B08900B100BF2F462C8A4CF661
:101B6000FF700440F08804432C82AC894EF6F310D9
:101B70000440B08831890843718908430443AC812B
:101B8000AC8A4FF6FF400440B0890443AC8201A800
:101B9000FFF732F91F48874202D1DDF810A001E0BB
:101BA000DDF80CA0A88900F4004040B10AEBCA009F
:101BB00000EB0A1031684900B0FBF1F807E00AEBCE
:101BC000CA0000EB0A1031688900B0FBF1F864200C
:101BD000B8FBF0F004012009642101FB1089A889F9
:101BE00000F4004040B1322000EBC900B0FBF1F03E
:101BF00000F00700044308E0322000EB09106421E4
:101C0000B0FBF1F000F00F0004432C8106B0BDE8FA
:101C1000F08700000038014001468888C0F30800C2
:101C2000704700BFFEE70000014A024900F013B808
:101C3000791C00081400002002E008C8121F08C127
:101C4000002AFAD170477047002001E001C1121F3D
:101C5000002AFBD170472DE9F04116460F46044695
:101C6000002503E03946B047641C6D1C207800282D
:101C7000F8D12846BDE8F08170B504460D4600BF96
:101C800080210A480068FFF7FFFE0028F8D0E0B284
:101C900006490968888000BF04480068008800F091
:101CA00040000028F8D0204670BD00001000002041
:101CB00010B50620FEF798FF1F4948600879FEF727
:101CC000A3FB1D4948600520FEF78EFF1A490872E4
:101CD000087AFEF799FB184908720420FEF784FF82
:101CE00015494872487AFEF78FFB13494872022063
:101CF000FEF77AFF104908700846007800F03F00B0
:101D000008700878FEF780FB0B4908700120FEF789
:101D10006BFF094948704878FEF776FB0649487022
:101D20000020FEF761FF044988708878FEF76CFB9D
:101D30000149887010BD0000700C00202DE9F041B1
:101D400005460E46002417E080214048FEF70CFFB0
:101D50000220FEF739FD01213D48FEF707FF022072
:101D6000FEF732FD80213948FEF7FEFE012138489A
:101D7000FEF7FAFE601CC4B2032CE5DB002423E06E
:101D800005F0010727B980213048FEF7EDFE03E09A
:101D900080212E48FEF7EAFE6D080220FEF714FDB2
:101DA00001212B48FEF7E2FE0220FEF70DFD802107
:101DB0002648FEF7D9FE01212548FEF7D5FE022070
:101DC000FEF702FD601CC4B2092CD9DB002420E020
:101DD00006F0010727B980211C48FEF7C5FE03E085
:101DE00080211A48FEF7C2FE76100220FEF7ECFCB6
:101DF00001211748FEF7BAFE0220FEF7E5FC80211C
:101E00001248FEF7B1FE01211148FEF7ADFE601C3D
:101E1000C4B2082CDCDB40210C48FEF7A7FE0220F0
:101E2000FEF7D2FC20210948FEF7A0FE0220FEF7B3
:101E3000CBFC20210548FEF797FE40210348FEF722
:101E400093FE0220FEF7B6FCBDE8F08100080140D9
:101E5000000C014010B5FEF78BFE80210B48FEF709
:101E600083FE0220FEF7B0FC01210948FEF77CFE4C
:101E70000220FEF7A9FC40210448FEF775FE02206F
:101E8000FEF7A2FC03A0FFF7CFFE10BD0008014043
:101E9000000C01404856353831325F496E69745F35
:101EA0004F4B0D0A00000000FEF708FB4FF4FA70DC
:101EB000FEF780FC01E0FEF78FFCFCE7DC1E00086B
:101EC0000000002060000000381C00083C1F0008D3
:101ED0006000002020100000481C000800000000E6
:101EE00000000000000000000000000000000000F2
:101EF00000000000000000000102030401020304CE
:101F00000607080902040608000000000077602F99
:101F10006D785D5F617F7D80020000001000000031
:101F20004000000004000000000100000800000064
:0C1F300001000000200000008000000004
:0400000508000131BD
:00000001FF
